{
  "_format": "hh-sol-artifact-1",
  "contractName": "Factory3",
  "sourceName": "contracts/Factory3.sol",
  "abi": [
    {
      "anonymous": false,
      "inputs": [
        {
          "indexed": true,
          "internalType": "bytes32",
          "name": "projectId",
          "type": "bytes32"
        },
        {
          "indexed": false,
          "internalType": "address",
          "name": "whitelistContract",
          "type": "address"
        },
        {
          "indexed": false,
          "internalType": "address",
          "name": "nftContract",
          "type": "address"
        },
        {
          "indexed": false,
          "internalType": "address",
          "name": "claimContract",
          "type": "address"
        }
      ],
      "name": "ProjectDeployed",
      "type": "event"
    },
    {
      "inputs": [
        {
          "internalType": "bytes32",
          "name": "projectId",
          "type": "bytes32"
        },
        {
          "internalType": "address",
          "name": "tokenAddress",
          "type": "address"
        },
        {
          "internalType": "string",
          "name": "nftName",
          "type": "string"
        },
        {
          "internalType": "string",
          "name": "nftSymbol",
          "type": "string"
        },
        {
          "internalType": "string",
          "name": "baseURI",
          "type": "string"
        },
        {
          "internalType": "uint256",
          "name": "claimQuota",
          "type": "uint256"
        }
      ],
      "name": "createProject",
      "outputs": [
        {
          "internalType": "address",
          "name": "whitelistContract",
          "type": "address"
        },
        {
          "internalType": "address",
          "name": "nftContract",
          "type": "address"
        },
        {
          "internalType": "address",
          "name": "claimContract",
          "type": "address"
        }
      ],
      "stateMutability": "nonpayable",
      "type": "function"
    },
    {
      "inputs": [
        {
          "internalType": "bytes32",
          "name": "",
          "type": "bytes32"
        }
      ],
      "name": "projects",
      "outputs": [
        {
          "internalType": "address",
          "name": "whitelist",
          "type": "address"
        },
        {
          "internalType": "address",
          "name": "nft",
          "type": "address"
        },
        {
          "internalType": "address",
          "name": "claim",
          "type": "address"
        },
        {
          "internalType": "bool",
          "name": "exists",
          "type": "bool"
        }
      ],
      "stateMutability": "view",
      "type": "function"
    }
  ],
  "bytecode": "0x6080604052348015600f57600080fd5b506135fc8061001f6000396000f3fe608060405234801561001057600080fd5b50600436106100365760003560e01c806302df1f611461003b578063b96ea12d1461007d575b600080fd5b61004e6100493660046107d7565b6100fa565b604080516001600160a01b03948516815292841660208401529216918101919091526060015b60405180910390f35b6100c561008b36600461089e565b6000602081905290815260409020805460018201546002909201546001600160a01b0391821692821691811690600160a01b900460ff1684565b60405161007494939291906001600160a01b039485168152928416602084015292166040820152901515606082015260800190565b60008681526020819052604081206002015481908190600160a01b900460ff16156101605760405162461bcd60e51b815260206004820152601160248201527050726f6a6563742049442065786973747360781b60448201526064015b60405180910390fd5b6001600160a01b0388166101ae5760405162461bcd60e51b8152602060048201526015602482015274496e76616c696420746f6b656e206164647265737360581b6044820152606401610157565b60008751116101f05760405162461bcd60e51b815260206004820152600e60248201526d456d707479204e4654206e616d6560901b6044820152606401610157565b60008651116102345760405162461bcd60e51b815260206004820152601060248201526f115b5c1d1e48139195081cde5b589bdb60821b6044820152606401610157565b600084116102785760405162461bcd60e51b8152602060048201526011602482015270051756f7461206d757374206265203e203607c1b6044820152606401610157565b60006040518060200161028a9061070b565b6020820181038252601f19601f82011660405250905060008151602083016000f090506001600160a01b0381166103035760405162461bcd60e51b815260206004820152601760248201527f57686974656c697374206465706c6f79206661696c65640000000000000000006044820152606401610157565b60405163189acdbd60e31b81523360048201526001600160a01b0382169063c4d66de890602401600060405180830381600087803b15801561034457600080fd5b505af1158015610358573d6000803e3d6000fd5b50505050809450505060006040518060200161037390610718565b6020820181038252601f19601f82011660405250905060008151602083016000f090506001600160a01b0381166103e05760405162461bcd60e51b81526020600482015260116024820152701391950819195c1b1bde4819985a5b1959607a1b6044820152606401610157565b604051635c6d8da160e01b81526001600160a01b03821690635c6d8da190610413908c908c908c906000906004016108fd565b600060405180830381600087803b15801561042d57600080fd5b505af1158015610441573d6000803e3d6000fd5b50505050809350505060006040518060200161045c90610725565b6020820181038252601f19601f82011660405250905060008151602083016000f090506001600160a01b0381166104cb5760405162461bcd60e51b815260206004820152601360248201527210db185a5b4819195c1b1bde4819985a5b1959606a1b6044820152606401610157565b604051637b809f7b60e11b81523360048201526001600160a01b038b81166024830152858116604483015286811660648301526084820188905282169063f7013ef69060a401600060405180830381600087803b15801561052b57600080fd5b505af115801561053f573d6000803e3d6000fd5b5050604051634a30d3eb60e01b81526001600160a01b0380851660048301529395509286169350634a30d3eb9260240191506105789050565b600060405180830381600087803b15801561059257600080fd5b505af11580156105a6573d6000803e3d6000fd5b505050506040518060800160405280846001600160a01b03168152602001836001600160a01b03168152602001826001600160a01b03168152602001600115158152506000808b815260200190815260200160002060008201518160000160006101000a8154816001600160a01b0302191690836001600160a01b0316021790555060208201518160010160006101000a8154816001600160a01b0302191690836001600160a01b0316021790555060408201518160020160006101000a8154816001600160a01b0302191690836001600160a01b0316021790555060608201518160020160146101000a81548160ff021916908315150217905550905050887f252140508571b30a9b5a0127624e23960717e21758b1750e83207023ff3c0eaa8484846040516106f7939291906001600160a01b0393841681529183166020830152909116604082015260600190565b60405180910390a296509650969350505050565b61066d8061095183390190565b61168280610fbe83390190565b610fb08061264083390190565b634e487b7160e01b600052604160045260246000fd5b600082601f83011261075957600080fd5b813567ffffffffffffffff81111561077357610773610732565b604051601f8201601f19908116603f0116810167ffffffffffffffff811182821017156107a2576107a2610732565b6040528181528382016020018510156107ba57600080fd5b816020850160208301376000918101602001919091529392505050565b60008060008060008060c087890312156107f057600080fd5b8635955060208701356001600160a01b038116811461080e57600080fd5b9450604087013567ffffffffffffffff81111561082a57600080fd5b61083689828a01610748565b945050606087013567ffffffffffffffff81111561085357600080fd5b61085f89828a01610748565b935050608087013567ffffffffffffffff81111561087c57600080fd5b61088889828a01610748565b9699959850939692959460a09093013593505050565b6000602082840312156108b057600080fd5b5035919050565b6000815180845260005b818110156108dd576020818501810151868301820152016108c1565b506000602082860101526020601f19601f83011685010191505092915050565b60808152600061091060808301876108b7565b828103602084015261092281876108b7565b9050828103604084015261093681866108b7565b91505060018060a01b03831660608301529594505050505056fe6080604052348015600f57600080fd5b5061064e8061001f6000396000f3fe608060405234801561001057600080fd5b50600436106100885760003560e01c80638da5cb5b1161005b5780638da5cb5b146100fe578063c4d66de814610138578063e43252d71461014b578063f2fde38b1461015e57600080fd5b80632db6fa361461008d5780633af32abf146100a2578063715018a6146100e35780638ab1d681146100eb575b600080fd5b6100a061009b366004610584565b610171565b005b6100ce6100b03660046105fb565b6001600160a01b031660009081526020819052604090205460ff1690565b60405190151581526020015b60405180910390f35b6100a0610241565b6100a06100f93660046105fb565b610255565b7f9016d09d72d40fdae2fd8ceac6b6234c7706214fd39c1cd1e609a0528c199300546040516001600160a01b0390911681526020016100da565b6100a06101463660046105fb565b6102a6565b6100a06101593660046105fb565b6103bf565b6100a061016c3660046105fb565b610413565b610179610456565b60005b8181101561023c57600160008085858581811061019b5761019b61062b565b90506020020160208101906101b091906105fb565b6001600160a01b031681526020810191909152604001600020805460ff19169115159190911790558282828181106101ea576101ea61062b565b90506020020160208101906101ff91906105fb565b6001600160a01b03167fa226db3f664042183ee0281230bba26cbf7b5057e50aee7f25a175ff45ce4d7f60405160405180910390a260010161017c565b505050565b610249610456565b61025360006104b1565b565b61025d610456565b6001600160a01b038116600081815260208190526040808220805460ff19169055517f24a12366c02e13fe4a9e03d86a8952e85bb74a456c16e4a18b6d8295700b74bb9190a250565b7ff0c57e16840df040f15088dc2f81fe391c3923bec73e23a9662efc9c229c6a008054600160401b810460ff16159067ffffffffffffffff166000811580156102ec5750825b905060008267ffffffffffffffff1660011480156103095750303b155b905081158015610317575080155b156103355760405163f92ee8a960e01b815260040160405180910390fd5b845467ffffffffffffffff19166001178555831561035f57845460ff60401b1916600160401b1785555b61036833610522565b61037186610413565b83156103b757845460ff60401b19168555604051600181527fc7f505b2f371ae2175ee4913f4499e1f2633a7b5936321eed1cdaeb6115181d29060200160405180910390a15b505050505050565b6103c7610456565b6001600160a01b038116600081815260208190526040808220805460ff19166001179055517fa226db3f664042183ee0281230bba26cbf7b5057e50aee7f25a175ff45ce4d7f9190a250565b61041b610456565b6001600160a01b03811661044a57604051631e4fbdf760e01b8152600060048201526024015b60405180910390fd5b610453816104b1565b50565b336104887f9016d09d72d40fdae2fd8ceac6b6234c7706214fd39c1cd1e609a0528c199300546001600160a01b031690565b6001600160a01b0316146102535760405163118cdaa760e01b8152336004820152602401610441565b7f9016d09d72d40fdae2fd8ceac6b6234c7706214fd39c1cd1e609a0528c19930080546001600160a01b031981166001600160a01b03848116918217845560405192169182907f8be0079c531659141344cd1fd0a4f28419497f9722a3daafe3b4186f6b6457e090600090a3505050565b61052a610533565b6104538161057c565b7ff0c57e16840df040f15088dc2f81fe391c3923bec73e23a9662efc9c229c6a0054600160401b900460ff1661025357604051631afcd79f60e31b815260040160405180910390fd5b61041b610533565b6000806020838503121561059757600080fd5b823567ffffffffffffffff8111156105ae57600080fd5b8301601f810185136105bf57600080fd5b803567ffffffffffffffff8111156105d657600080fd5b8560208260051b84010111156105eb57600080fd5b6020919091019590945092505050565b60006020828403121561060d57600080fd5b81356001600160a01b038116811461062457600080fd5b9392505050565b634e487b7160e01b600052603260045260246000fdfea164736f6c634300081c000a6080604052348015600f57600080fd5b506116638061001f6000396000f3fe608060405234801561001057600080fd5b506004361061010b5760003560e01c80636352211e116100a257806395d89b411161007157806395d89b4114610233578063a22cb4651461023b578063b88d4fde1461024e578063c87b56dd14610261578063e985e9c51461027457600080fd5b80636352211e146101d957806366345da4146101ec5780636a627842146101ff57806370a082311461022057600080fd5b806323b872dd116100de57806323b872dd1461018d57806342842e0e146101a05780634a30d3eb146101b35780635c6d8da1146101c657600080fd5b806301ffc9a71461011057806306fdde0314610138578063081812fc1461014d578063095ea7b314610178575b600080fd5b61012361011e3660046110d4565b610287565b60405190151581526020015b60405180910390f35b6101406102d9565b60405161012f9190611141565b61016061015b366004611154565b61037d565b6040516001600160a01b03909116815260200161012f565b61018b610186366004611184565b610392565b005b61018b61019b3660046111ae565b6103a1565b61018b6101ae3660046111ae565b610431565b61018b6101c13660046111eb565b610451565b61018b6101d43660046112b6565b6104cc565b6101606101e7366004611154565b6105f7565b600154610160906001600160a01b031681565b61021261020d3660046111eb565b610602565b60405190815260200161012f565b61021261022e3660046111eb565b610688565b6101406106e4565b61018b61024936600461135b565b610723565b61018b61025c366004611397565b61072e565b61014061026f366004611154565b610746565b610123610282366004611413565b6107ae565b60006001600160e01b031982166380ac58cd60e01b14806102b857506001600160e01b03198216635b5e139f60e01b145b806102d357506301ffc9a760e01b6001600160e01b03198316145b92915050565b60008051602061163783398151915280546060919081906102f990611446565b80601f016020809104026020016040519081016040528092919081815260200182805461032590611446565b80156103725780601f1061034757610100808354040283529160200191610372565b820191906000526020600020905b81548152906001019060200180831161035557829003601f168201915b505050505091505090565b6000610388826107fb565b506102d382610833565b61039d82823361086d565b5050565b6001600160a01b0382166103d057604051633250574960e11b8152600060048201526024015b60405180910390fd5b60006103dd83833361087a565b9050836001600160a01b0316816001600160a01b03161461042b576040516364283d7b60e01b81526001600160a01b03808616600483015260248201849052821660448201526064016103c7565b50505050565b61044c8383836040518060200160405280600081525061072e565b505050565b6001546001600160a01b0316156104aa5760405162461bcd60e51b815260206004820152601a60248201527f436c61696d20636f6e747261637420616c72656164792073657400000000000060448201526064016103c7565b600180546001600160a01b0319166001600160a01b0392909216919091179055565b60006104d6610984565b805490915060ff600160401b820416159067ffffffffffffffff166000811580156104fe5750825b905060008267ffffffffffffffff16600114801561051b5750303b155b905081158015610529575080155b156105475760405163f92ee8a960e01b815260040160405180910390fd5b845467ffffffffffffffff19166001178555831561057157845460ff60401b1916600160401b1785555b61057b89896109ad565b600061058788826114c7565b50600180546001600160a01b0319166001600160a01b03881617815560025583156105ec57845460ff60401b19168555604051600181527fc7f505b2f371ae2175ee4913f4499e1f2633a7b5936321eed1cdaeb6115181d29060200160405180910390a15b505050505050505050565b60006102d3826107fb565b6001546000906001600160a01b0316331461065f5760405162461bcd60e51b815260206004820152601c60248201527f43616c6c6572206973206e6f7420636c61696d20636f6e74726163740000000060448201526064016103c7565b60028054908190600061067183611586565b919050555061068083826109bf565b90505b919050565b60006000805160206116378339815191526001600160a01b0383166106c3576040516322718ad960e21b8152600060048201526024016103c7565b6001600160a01b039092166000908152600390920160205250604090205490565b7f80bb2b638cc20bc4d0a60d66940f3ab4a00c1d7b313497ca82fb0b4ab00793018054606091600080516020611637833981519152916102f990611446565b61039d3383836109d9565b6107398484846103a1565b61042b3385858585610a8a565b6060610751826107fb565b50600061075c610bb5565b9050600081511161077c57604051806020016040528060008152506107a7565b8061078684610c47565b6040516020016107979291906115ad565b6040516020818303038152906040525b9392505050565b6001600160a01b0391821660009081527f80bb2b638cc20bc4d0a60d66940f3ab4a00c1d7b313497ca82fb0b4ab00793056020908152604080832093909416825291909152205460ff1690565b60008061080783610cda565b90506001600160a01b03811661068057604051637e27328960e01b8152600481018490526024016103c7565b60009081527f80bb2b638cc20bc4d0a60d66940f3ab4a00c1d7b313497ca82fb0b4ab007930460205260409020546001600160a01b031690565b61044c8383836001610d14565b60006000805160206116378339815191528161089585610cda565b90506001600160a01b038416156108b1576108b1818587610e2a565b6001600160a01b038116156108f1576108ce600086600080610d14565b6001600160a01b0381166000908152600383016020526040902080546000190190555b6001600160a01b03861615610922576001600160a01b03861660009081526003830160205260409020805460010190555b600085815260028301602052604080822080546001600160a01b0319166001600160a01b038a811691821790925591518893918516917fddf252ad1be2c89b69c2b068fc378daa952ba7f163c4a11628f55a4df523b3ef91a495945050505050565b6000807ff0c57e16840df040f15088dc2f81fe391c3923bec73e23a9662efc9c229c6a006102d3565b6109b5610e8e565b61039d8282610eb5565b61039d828260405180602001604052806000815250610ee6565b6000805160206116378339815191526001600160a01b038316610a1a57604051630b61174360e31b81526001600160a01b03841660048201526024016103c7565b6001600160a01b038481166000818152600584016020908152604080832094881680845294825291829020805460ff191687151590811790915591519182527f17307eab39ab6107e8899845ad3d59bd9653f200f220920489ca2b5937696c31910160405180910390a350505050565b6001600160a01b0383163b15610bae57604051630a85bd0160e11b81526001600160a01b0384169063150b7a0290610acc9088908890879087906004016115dc565b6020604051808303816000875af1925050508015610b07575060408051601f3d908101601f19168201909252610b0491810190611619565b60015b610b70573d808015610b35576040519150601f19603f3d011682016040523d82523d6000602084013e610b3a565b606091505b508051600003610b6857604051633250574960e11b81526001600160a01b03851660048201526024016103c7565b805181602001fd5b6001600160e01b03198116630a85bd0160e11b14610bac57604051633250574960e11b81526001600160a01b03851660048201526024016103c7565b505b5050505050565b606060008054610bc490611446565b80601f0160208091040260200160405190810160405280929190818152602001828054610bf090611446565b8015610c3d5780601f10610c1257610100808354040283529160200191610c3d565b820191906000526020600020905b815481529060010190602001808311610c2057829003601f168201915b5050505050905090565b60606000610c5483610efe565b600101905060008167ffffffffffffffff811115610c7457610c74611206565b6040519080825280601f01601f191660200182016040528015610c9e576020820181803683370190505b5090508181016020015b600019016f181899199a1a9b1b9c1cb0b131b232b360811b600a86061a8153600a8504945084610ca857509392505050565b60009081527f80bb2b638cc20bc4d0a60d66940f3ab4a00c1d7b313497ca82fb0b4ab007930260205260409020546001600160a01b031690565b6000805160206116378339815191528180610d3757506001600160a01b03831615155b15610df9576000610d47856107fb565b90506001600160a01b03841615801590610d735750836001600160a01b0316816001600160a01b031614155b8015610d865750610d8481856107ae565b155b15610daf5760405163a9fbf51f60e01b81526001600160a01b03851660048201526024016103c7565b8215610df75784866001600160a01b0316826001600160a01b03167f8c5be1e5ebec7d5bd14f71427d1e84f3dd0314c0f7b2291e5b200ac8c7c3b92560405160405180910390a45b505b600093845260040160205250506040902080546001600160a01b0319166001600160a01b0392909216919091179055565b610e35838383610fd6565b61044c576001600160a01b038316610e6357604051637e27328960e01b8152600481018290526024016103c7565b60405163177e802f60e01b81526001600160a01b0383166004820152602481018290526044016103c7565b610e9661103c565b610eb357604051631afcd79f60e31b815260040160405180910390fd5b565b610ebd610e8e565b60008051602061163783398151915280610ed784826114c7565b506001810161042b83826114c7565b610ef08383611056565b61044c336000858585610a8a565b60008072184f03e93ff9f4daa797ed6e38ed64bf6a1f0160401b8310610f3d5772184f03e93ff9f4daa797ed6e38ed64bf6a1f0160401b830492506040015b6d04ee2d6d415b85acef81000000008310610f69576d04ee2d6d415b85acef8100000000830492506020015b662386f26fc100008310610f8757662386f26fc10000830492506010015b6305f5e1008310610f9f576305f5e100830492506008015b6127108310610fb357612710830492506004015b60648310610fc5576064830492506002015b600a83106106805760010192915050565b60006001600160a01b038316158015906110345750826001600160a01b0316846001600160a01b03161480611010575061101084846107ae565b806110345750826001600160a01b031661102983610833565b6001600160a01b0316145b949350505050565b6000611046610984565b54600160401b900460ff16919050565b6001600160a01b03821661108057604051633250574960e11b8152600060048201526024016103c7565b600061108e8383600061087a565b90506001600160a01b0381161561044c576040516339e3563760e11b8152600060048201526024016103c7565b6001600160e01b0319811681146110d157600080fd5b50565b6000602082840312156110e657600080fd5b81356107a7816110bb565b60005b8381101561110c5781810151838201526020016110f4565b50506000910152565b6000815180845261112d8160208601602086016110f1565b601f01601f19169290920160200192915050565b6020815260006107a76020830184611115565b60006020828403121561116657600080fd5b5035919050565b80356001600160a01b038116811461068357600080fd5b6000806040838503121561119757600080fd5b6111a08361116d565b946020939093013593505050565b6000806000606084860312156111c357600080fd5b6111cc8461116d565b92506111da6020850161116d565b929592945050506040919091013590565b6000602082840312156111fd57600080fd5b6107a78261116d565b634e487b7160e01b600052604160045260246000fd5b60008067ffffffffffffffff84111561123757611237611206565b50604051601f19601f85018116603f0116810181811067ffffffffffffffff8211171561126657611266611206565b60405283815290508082840185101561127e57600080fd5b83836020830137600060208583010152509392505050565b600082601f8301126112a757600080fd5b6107a78383356020850161121c565b600080600080608085870312156112cc57600080fd5b843567ffffffffffffffff8111156112e357600080fd5b6112ef87828801611296565b945050602085013567ffffffffffffffff81111561130c57600080fd5b61131887828801611296565b935050604085013567ffffffffffffffff81111561133557600080fd5b61134187828801611296565b9250506113506060860161116d565b905092959194509250565b6000806040838503121561136e57600080fd5b6113778361116d565b91506020830135801515811461138c57600080fd5b809150509250929050565b600080600080608085870312156113ad57600080fd5b6113b68561116d565b93506113c46020860161116d565b925060408501359150606085013567ffffffffffffffff8111156113e757600080fd5b8501601f810187136113f857600080fd5b6114078782356020840161121c565b91505092959194509250565b6000806040838503121561142657600080fd5b61142f8361116d565b915061143d6020840161116d565b90509250929050565b600181811c9082168061145a57607f821691505b60208210810361147a57634e487b7160e01b600052602260045260246000fd5b50919050565b601f82111561044c57806000526020600020601f840160051c810160208510156114a75750805b601f840160051c820191505b81811015610bae57600081556001016114b3565b815167ffffffffffffffff8111156114e1576114e1611206565b6114f5816114ef8454611446565b84611480565b6020601f82116001811461152957600083156115115750848201515b600019600385901b1c1916600184901b178455610bae565b600084815260208120601f198516915b828110156115595787850151825560209485019460019092019101611539565b50848210156115775786840151600019600387901b60f8161c191681555b50505050600190811b01905550565b6000600182016115a657634e487b7160e01b600052601160045260246000fd5b5060010190565b600083516115bf8184602088016110f1565b8351908301906115d38183602088016110f1565b01949350505050565b6001600160a01b038581168252841660208201526040810183905260806060820181905260009061160f90830184611115565b9695505050505050565b60006020828403121561162b57600080fd5b81516107a7816110bb56fe80bb2b638cc20bc4d0a60d66940f3ab4a00c1d7b313497ca82fb0b4ab0079300a164736f6c634300081c000a6080604052348015600f57600080fd5b50610f918061001f6000396000f3fe608060405234801561001057600080fd5b50600436106100cf5760003560e01c806393e59dc11161008c578063cebe09c911610066578063cebe09c9146101c5578063f2fde38b146101dc578063f7013ef6146101ef578063fc0c546a1461020257600080fd5b806393e59dc11461016c578063b6b55f251461017f578063c884ef831461019257600080fd5b806341107b64146100d457806347ccca02146100e95780634e71d92d146101195780635312ea8e14610121578063715018a6146101345780638da5cb5b1461013c575b600080fd5b6100e76100e2366004610ce9565b610215565b005b6001546100fc906001600160a01b031681565b6040516001600160a01b0390911681526020015b60405180910390f35b6100e76102ab565b6100e761012f366004610ce9565b6104f4565b6100e7610612565b7f9016d09d72d40fdae2fd8ceac6b6234c7706214fd39c1cd1e609a0528c199300546001600160a01b03166100fc565b6002546100fc906001600160a01b031681565b6100e761018d366004610ce9565b610626565b6101b56101a0366004610d1e565b60046020526000908152604090205460ff1681565b6040519015158152602001610110565b6101ce60035481565b604051908152602001610110565b6100e76101ea366004610d1e565b610782565b6100e76101fd366004610d40565b6107c0565b6000546100fc906001600160a01b031681565b61021d610916565b600081116102665760405162461bcd60e51b8152602060048201526011602482015270051756f7461206d757374206265203e203607c1b60448201526064015b60405180910390fd5b600380549082905560408051828152602081018490527f19d6318afb32eea58ef4a200d5730cc282d7e0bd791a8ced865532f1ac4b9b0f910160405180910390a15050565b3360009081526004602052604090205460ff16156102fd5760405162461bcd60e51b815260206004820152600f60248201526e105b1c9958591e4818db185a5b5959608a1b604482015260640161025d565b600254604051633af32abf60e01b81523360048201526001600160a01b0390911690633af32abf90602401602060405180830381865afa158015610345573d6000803e3d6000fd5b505050506040513d601f19601f820116820180604052508101906103699190610d9c565b6103a75760405162461bcd60e51b815260206004820152600f60248201526e139bdd081dda1a5d195b1a5cdd1959608a1b604482015260640161025d565b6001546040516335313c2160e11b81523360048201526000916001600160a01b031690636a627842906024016020604051808303816000875af192505050801561040e575060408051601f3d908101601f1916820190925261040b91810190610dbe565b60015b61047c5761041a610dd7565b806308c379a003610470575061042e610e2e565b806104395750610472565b8060405160200161044a9190610ed7565b60408051601f198184030181529082905262461bcd60e51b825261025d91600401610f10565b505b3d6000803e3d6000fd5b9050336000818152600460205260408120805460ff19166001179055546003546104b3926001600160a01b03929092169190610971565b600354604080519182526020820183905233917f987d620f307ff6b94d58743cb7a7509f24071586a77759b77c2d4e29f75a2f9a910160405180910390a250565b6104fc610916565b600081116105415760405162461bcd60e51b81526020600482015260126024820152710416d6f756e74206d757374206265203e20360741b604482015260640161025d565b600080546040516370a0823160e01b81523060048201526001600160a01b03909116906370a0823190602401602060405180830381865afa15801561058a573d6000803e3d6000fd5b505050506040513d601f19601f820116820180604052508101906105ae9190610dbe565b9050818110156105f75760405162461bcd60e51b8152602060048201526014602482015273496e73756666696369656e742062616c616e636560601b604482015260640161025d565b60005461060e906001600160a01b03163384610971565b5050565b61061a610916565b6106246000610abc565b565b61062e610916565b600081116106735760405162461bcd60e51b81526020600482015260126024820152710416d6f756e74206d757374206265203e20360741b604482015260640161025d565b60008054604051636eb1769f60e11b81523360048201523060248201526001600160a01b039091169063dd62ed3e90604401602060405180830381865afa1580156106c2573d6000803e3d6000fd5b505050506040513d601f19601f820116820180604052508101906106e69190610dbe565b9050818110156107315760405162461bcd60e51b8152602060048201526016602482015275496e73756666696369656e7420616c6c6f77616e636560501b604482015260640161025d565b600054610749906001600160a01b0316333085610b2d565b60405182815233907f2da466a7b24304f47e87fa2e1e5a81b9831ce54fec19055ce277ca2f39ba42c49060200160405180910390a25050565b61078a610916565b6001600160a01b0381166107b457604051631e4fbdf760e01b81526000600482015260240161025d565b6107bd81610abc565b50565b7ff0c57e16840df040f15088dc2f81fe391c3923bec73e23a9662efc9c229c6a008054600160401b810460ff16159067ffffffffffffffff166000811580156108065750825b905060008267ffffffffffffffff1660011480156108235750303b155b905081158015610831575080155b1561084f5760405163f92ee8a960e01b815260040160405180910390fd5b845467ffffffffffffffff19166001178555831561087957845460ff60401b1916600160401b1785555b6108828a610c87565b600080546001600160a01b03808c166001600160a01b031992831617909255600180548b841690831617905560028054928a16929091169190911790556003869055831561090a57845460ff60401b19168555604051600181527fc7f505b2f371ae2175ee4913f4499e1f2633a7b5936321eed1cdaeb6115181d29060200160405180910390a15b50505050505050505050565b336109487f9016d09d72d40fdae2fd8ceac6b6234c7706214fd39c1cd1e609a0528c199300546001600160a01b031690565b6001600160a01b0316146106245760405163118cdaa760e01b815233600482015260240161025d565b604080518082018252601981527f7472616e7366657228616464726573732c75696e74323536290000000000000060209182015281516001600160a01b0385811660248301526044808301869052845180840390910181526064909201845291810180516001600160e01b031663a9059cbb60e01b179052915160009283928716916109fd9190610f43565b6000604051808303816000865af19150503d8060008114610a3a576040519150601f19603f3d011682016040523d82523d6000602084013e610a3f565b606091505b5091509150818015610a69575080511580610a69575080806020019051810190610a699190610d9c565b610ab55760405162461bcd60e51b815260206004820152601d60248201527f536166655472616e736665723a205452414e534645525f4641494c4544000000604482015260640161025d565b5050505050565b7f9016d09d72d40fdae2fd8ceac6b6234c7706214fd39c1cd1e609a0528c19930080546001600160a01b031981166001600160a01b03848116918217845560405192169182907f8be0079c531659141344cd1fd0a4f28419497f9722a3daafe3b4186f6b6457e090600090a3505050565b600080856001600160a01b0316604051806060016040528060258152602001610f606025913980516020909101206040516001600160a01b038089166024830152871660448201526064810186905260840160408051601f198184030181529181526020820180516001600160e01b03166001600160e01b0319909416939093179092529051610bbd9190610f43565b6000604051808303816000865af19150503d8060008114610bfa576040519150601f19603f3d011682016040523d82523d6000602084013e610bff565b606091505b5091509150818015610c29575080511580610c29575080806020019051810190610c299190610d9c565b610c7f5760405162461bcd60e51b815260206004820152602160248201527f536166655472616e7366657246726f6d3a205452414e534645525f4641494c456044820152601160fa1b606482015260840161025d565b505050505050565b610c8f610c98565b6107bd81610ce1565b7ff0c57e16840df040f15088dc2f81fe391c3923bec73e23a9662efc9c229c6a0054600160401b900460ff1661062457604051631afcd79f60e31b815260040160405180910390fd5b61078a610c98565b600060208284031215610cfb57600080fd5b5035919050565b80356001600160a01b0381168114610d1957600080fd5b919050565b600060208284031215610d3057600080fd5b610d3982610d02565b9392505050565b600080600080600060a08688031215610d5857600080fd5b610d6186610d02565b9450610d6f60208701610d02565b9350610d7d60408701610d02565b9250610d8b60608701610d02565b949793965091946080013592915050565b600060208284031215610dae57600080fd5b81518015158114610d3957600080fd5b600060208284031215610dd057600080fd5b5051919050565b600060033d1115610df05760046000803e5060005160e01c5b90565b601f8201601f1916810167ffffffffffffffff81118282101715610e2757634e487b7160e01b600052604160045260246000fd5b6040525050565b600060443d1015610e3c5790565b6040513d600319016004823e80513d602482011167ffffffffffffffff82111715610e6657505090565b808201805167ffffffffffffffff811115610e82575050505090565b3d8401600319018282016020011115610e9c575050505090565b610eab60208285010185610df3565b509392505050565b60005b83811015610ece578181015183820152602001610eb6565b50506000910152565b70027232a1036b4b73a103330b4b632b21d1607d1b815260008251610f03816011850160208701610eb3565b9190910160110192915050565b6020815260008251806020840152610f2f816040850160208701610eb3565b601f01601f19169190910160400192915050565b60008251610f55818460208701610eb3565b919091019291505056fe7472616e7366657246726f6d28616464726573732c616464726573732c75696e7432353629a164736f6c634300081c000aa164736f6c634300081c000a",
  "linkReferences": {},
  "deployedLinkReferences": {}
}