{
  "_format": "hh-sol-artifact-1",
  "contractName": "CustomNFT",
  "sourceName": "contracts/CustomNFT.sol",
  "abi": [
    {
      "inputs": [
        {
          "internalType": "address",
          "name": "sender",
          "type": "address"
        },
        {
          "internalType": "uint256",
          "name": "tokenId",
          "type": "uint256"
        },
        {
          "internalType": "address",
          "name": "owner",
          "type": "address"
        }
      ],
      "name": "ERC721IncorrectOwner",
      "type": "error"
    },
    {
      "inputs": [
        {
          "internalType": "address",
          "name": "operator",
          "type": "address"
        },
        {
          "internalType": "uint256",
          "name": "tokenId",
          "type": "uint256"
        }
      ],
      "name": "ERC721InsufficientApproval",
      "type": "error"
    },
    {
      "inputs": [
        {
          "internalType": "address",
          "name": "approver",
          "type": "address"
        }
      ],
      "name": "ERC721InvalidApprover",
      "type": "error"
    },
    {
      "inputs": [
        {
          "internalType": "address",
          "name": "operator",
          "type": "address"
        }
      ],
      "name": "ERC721InvalidOperator",
      "type": "error"
    },
    {
      "inputs": [
        {
          "internalType": "address",
          "name": "owner",
          "type": "address"
        }
      ],
      "name": "ERC721InvalidOwner",
      "type": "error"
    },
    {
      "inputs": [
        {
          "internalType": "address",
          "name": "receiver",
          "type": "address"
        }
      ],
      "name": "ERC721InvalidReceiver",
      "type": "error"
    },
    {
      "inputs": [
        {
          "internalType": "address",
          "name": "sender",
          "type": "address"
        }
      ],
      "name": "ERC721InvalidSender",
      "type": "error"
    },
    {
      "inputs": [
        {
          "internalType": "uint256",
          "name": "tokenId",
          "type": "uint256"
        }
      ],
      "name": "ERC721NonexistentToken",
      "type": "error"
    },
    {
      "inputs": [],
      "name": "InvalidInitialization",
      "type": "error"
    },
    {
      "inputs": [],
      "name": "NotInitializing",
      "type": "error"
    },
    {
      "anonymous": false,
      "inputs": [
        {
          "indexed": true,
          "internalType": "address",
          "name": "owner",
          "type": "address"
        },
        {
          "indexed": true,
          "internalType": "address",
          "name": "approved",
          "type": "address"
        },
        {
          "indexed": true,
          "internalType": "uint256",
          "name": "tokenId",
          "type": "uint256"
        }
      ],
      "name": "Approval",
      "type": "event"
    },
    {
      "anonymous": false,
      "inputs": [
        {
          "indexed": true,
          "internalType": "address",
          "name": "owner",
          "type": "address"
        },
        {
          "indexed": true,
          "internalType": "address",
          "name": "operator",
          "type": "address"
        },
        {
          "indexed": false,
          "internalType": "bool",
          "name": "approved",
          "type": "bool"
        }
      ],
      "name": "ApprovalForAll",
      "type": "event"
    },
    {
      "anonymous": false,
      "inputs": [
        {
          "indexed": false,
          "internalType": "uint64",
          "name": "version",
          "type": "uint64"
        }
      ],
      "name": "Initialized",
      "type": "event"
    },
    {
      "anonymous": false,
      "inputs": [
        {
          "indexed": true,
          "internalType": "address",
          "name": "from",
          "type": "address"
        },
        {
          "indexed": true,
          "internalType": "address",
          "name": "to",
          "type": "address"
        },
        {
          "indexed": true,
          "internalType": "uint256",
          "name": "tokenId",
          "type": "uint256"
        }
      ],
      "name": "Transfer",
      "type": "event"
    },
    {
      "inputs": [
        {
          "internalType": "address",
          "name": "to",
          "type": "address"
        },
        {
          "internalType": "uint256",
          "name": "tokenId",
          "type": "uint256"
        }
      ],
      "name": "approve",
      "outputs": [],
      "stateMutability": "nonpayable",
      "type": "function"
    },
    {
      "inputs": [
        {
          "internalType": "address",
          "name": "owner",
          "type": "address"
        }
      ],
      "name": "balanceOf",
      "outputs": [
        {
          "internalType": "uint256",
          "name": "",
          "type": "uint256"
        }
      ],
      "stateMutability": "view",
      "type": "function"
    },
    {
      "inputs": [],
      "name": "claimContract",
      "outputs": [
        {
          "internalType": "address",
          "name": "",
          "type": "address"
        }
      ],
      "stateMutability": "view",
      "type": "function"
    },
    {
      "inputs": [
        {
          "internalType": "uint256",
          "name": "tokenId",
          "type": "uint256"
        }
      ],
      "name": "getApproved",
      "outputs": [
        {
          "internalType": "address",
          "name": "",
          "type": "address"
        }
      ],
      "stateMutability": "view",
      "type": "function"
    },
    {
      "inputs": [
        {
          "internalType": "string",
          "name": "name_",
          "type": "string"
        },
        {
          "internalType": "string",
          "name": "symbol_",
          "type": "string"
        },
        {
          "internalType": "string",
          "name": "baseURI_",
          "type": "string"
        },
        {
          "internalType": "address",
          "name": "claimContract_",
          "type": "address"
        }
      ],
      "name": "initialize",
      "outputs": [],
      "stateMutability": "nonpayable",
      "type": "function"
    },
    {
      "inputs": [
        {
          "internalType": "address",
          "name": "owner",
          "type": "address"
        },
        {
          "internalType": "address",
          "name": "operator",
          "type": "address"
        }
      ],
      "name": "isApprovedForAll",
      "outputs": [
        {
          "internalType": "bool",
          "name": "",
          "type": "bool"
        }
      ],
      "stateMutability": "view",
      "type": "function"
    },
    {
      "inputs": [
        {
          "internalType": "address",
          "name": "to",
          "type": "address"
        }
      ],
      "name": "mint",
      "outputs": [
        {
          "internalType": "uint256",
          "name": "",
          "type": "uint256"
        }
      ],
      "stateMutability": "nonpayable",
      "type": "function"
    },
    {
      "inputs": [],
      "name": "name",
      "outputs": [
        {
          "internalType": "string",
          "name": "",
          "type": "string"
        }
      ],
      "stateMutability": "view",
      "type": "function"
    },
    {
      "inputs": [
        {
          "internalType": "uint256",
          "name": "tokenId",
          "type": "uint256"
        }
      ],
      "name": "ownerOf",
      "outputs": [
        {
          "internalType": "address",
          "name": "",
          "type": "address"
        }
      ],
      "stateMutability": "view",
      "type": "function"
    },
    {
      "inputs": [
        {
          "internalType": "address",
          "name": "from",
          "type": "address"
        },
        {
          "internalType": "address",
          "name": "to",
          "type": "address"
        },
        {
          "internalType": "uint256",
          "name": "tokenId",
          "type": "uint256"
        }
      ],
      "name": "safeTransferFrom",
      "outputs": [],
      "stateMutability": "nonpayable",
      "type": "function"
    },
    {
      "inputs": [
        {
          "internalType": "address",
          "name": "from",
          "type": "address"
        },
        {
          "internalType": "address",
          "name": "to",
          "type": "address"
        },
        {
          "internalType": "uint256",
          "name": "tokenId",
          "type": "uint256"
        },
        {
          "internalType": "bytes",
          "name": "data",
          "type": "bytes"
        }
      ],
      "name": "safeTransferFrom",
      "outputs": [],
      "stateMutability": "nonpayable",
      "type": "function"
    },
    {
      "inputs": [
        {
          "internalType": "address",
          "name": "operator",
          "type": "address"
        },
        {
          "internalType": "bool",
          "name": "approved",
          "type": "bool"
        }
      ],
      "name": "setApprovalForAll",
      "outputs": [],
      "stateMutability": "nonpayable",
      "type": "function"
    },
    {
      "inputs": [
        {
          "internalType": "address",
          "name": "_claimContract",
          "type": "address"
        }
      ],
      "name": "setClaimContract",
      "outputs": [],
      "stateMutability": "nonpayable",
      "type": "function"
    },
    {
      "inputs": [
        {
          "internalType": "bytes4",
          "name": "interfaceId",
          "type": "bytes4"
        }
      ],
      "name": "supportsInterface",
      "outputs": [
        {
          "internalType": "bool",
          "name": "",
          "type": "bool"
        }
      ],
      "stateMutability": "view",
      "type": "function"
    },
    {
      "inputs": [],
      "name": "symbol",
      "outputs": [
        {
          "internalType": "string",
          "name": "",
          "type": "string"
        }
      ],
      "stateMutability": "view",
      "type": "function"
    },
    {
      "inputs": [
        {
          "internalType": "uint256",
          "name": "tokenId",
          "type": "uint256"
        }
      ],
      "name": "tokenURI",
      "outputs": [
        {
          "internalType": "string",
          "name": "",
          "type": "string"
        }
      ],
      "stateMutability": "view",
      "type": "function"
    },
    {
      "inputs": [
        {
          "internalType": "address",
          "name": "from",
          "type": "address"
        },
        {
          "internalType": "address",
          "name": "to",
          "type": "address"
        },
        {
          "internalType": "uint256",
          "name": "tokenId",
          "type": "uint256"
        }
      ],
      "name": "transferFrom",
      "outputs": [],
      "stateMutability": "nonpayable",
      "type": "function"
    }
  ],
  "bytecode": "0x6080604052348015600f57600080fd5b506116638061001f6000396000f3fe608060405234801561001057600080fd5b506004361061010b5760003560e01c80636352211e116100a257806395d89b411161007157806395d89b4114610233578063a22cb4651461023b578063b88d4fde1461024e578063c87b56dd14610261578063e985e9c51461027457600080fd5b80636352211e146101d957806366345da4146101ec5780636a627842146101ff57806370a082311461022057600080fd5b806323b872dd116100de57806323b872dd1461018d57806342842e0e146101a05780634a30d3eb146101b35780635c6d8da1146101c657600080fd5b806301ffc9a71461011057806306fdde0314610138578063081812fc1461014d578063095ea7b314610178575b600080fd5b61012361011e3660046110d4565b610287565b60405190151581526020015b60405180910390f35b6101406102d9565b60405161012f9190611141565b61016061015b366004611154565b61037d565b6040516001600160a01b03909116815260200161012f565b61018b610186366004611184565b610392565b005b61018b61019b3660046111ae565b6103a1565b61018b6101ae3660046111ae565b610431565b61018b6101c13660046111eb565b610451565b61018b6101d43660046112b6565b6104cc565b6101606101e7366004611154565b6105f7565b600154610160906001600160a01b031681565b61021261020d3660046111eb565b610602565b60405190815260200161012f565b61021261022e3660046111eb565b610688565b6101406106e4565b61018b61024936600461135b565b610723565b61018b61025c366004611397565b61072e565b61014061026f366004611154565b610746565b610123610282366004611413565b6107ae565b60006001600160e01b031982166380ac58cd60e01b14806102b857506001600160e01b03198216635b5e139f60e01b145b806102d357506301ffc9a760e01b6001600160e01b03198316145b92915050565b60008051602061163783398151915280546060919081906102f990611446565b80601f016020809104026020016040519081016040528092919081815260200182805461032590611446565b80156103725780601f1061034757610100808354040283529160200191610372565b820191906000526020600020905b81548152906001019060200180831161035557829003601f168201915b505050505091505090565b6000610388826107fb565b506102d382610833565b61039d82823361086d565b5050565b6001600160a01b0382166103d057604051633250574960e11b8152600060048201526024015b60405180910390fd5b60006103dd83833361087a565b9050836001600160a01b0316816001600160a01b03161461042b576040516364283d7b60e01b81526001600160a01b03808616600483015260248201849052821660448201526064016103c7565b50505050565b61044c8383836040518060200160405280600081525061072e565b505050565b6001546001600160a01b0316156104aa5760405162461bcd60e51b815260206004820152601a60248201527f436c61696d20636f6e747261637420616c72656164792073657400000000000060448201526064016103c7565b600180546001600160a01b0319166001600160a01b0392909216919091179055565b60006104d6610984565b805490915060ff600160401b820416159067ffffffffffffffff166000811580156104fe5750825b905060008267ffffffffffffffff16600114801561051b5750303b155b905081158015610529575080155b156105475760405163f92ee8a960e01b815260040160405180910390fd5b845467ffffffffffffffff19166001178555831561057157845460ff60401b1916600160401b1785555b61057b89896109ad565b600061058788826114c7565b50600180546001600160a01b0319166001600160a01b03881617815560025583156105ec57845460ff60401b19168555604051600181527fc7f505b2f371ae2175ee4913f4499e1f2633a7b5936321eed1cdaeb6115181d29060200160405180910390a15b505050505050505050565b60006102d3826107fb565b6001546000906001600160a01b0316331461065f5760405162461bcd60e51b815260206004820152601c60248201527f43616c6c6572206973206e6f7420636c61696d20636f6e74726163740000000060448201526064016103c7565b60028054908190600061067183611586565b919050555061068083826109bf565b90505b919050565b60006000805160206116378339815191526001600160a01b0383166106c3576040516322718ad960e21b8152600060048201526024016103c7565b6001600160a01b039092166000908152600390920160205250604090205490565b7f80bb2b638cc20bc4d0a60d66940f3ab4a00c1d7b313497ca82fb0b4ab00793018054606091600080516020611637833981519152916102f990611446565b61039d3383836109d9565b6107398484846103a1565b61042b3385858585610a8a565b6060610751826107fb565b50600061075c610bb5565b9050600081511161077c57604051806020016040528060008152506107a7565b8061078684610c47565b6040516020016107979291906115ad565b6040516020818303038152906040525b9392505050565b6001600160a01b0391821660009081527f80bb2b638cc20bc4d0a60d66940f3ab4a00c1d7b313497ca82fb0b4ab00793056020908152604080832093909416825291909152205460ff1690565b60008061080783610cda565b90506001600160a01b03811661068057604051637e27328960e01b8152600481018490526024016103c7565b60009081527f80bb2b638cc20bc4d0a60d66940f3ab4a00c1d7b313497ca82fb0b4ab007930460205260409020546001600160a01b031690565b61044c8383836001610d14565b60006000805160206116378339815191528161089585610cda565b90506001600160a01b038416156108b1576108b1818587610e2a565b6001600160a01b038116156108f1576108ce600086600080610d14565b6001600160a01b0381166000908152600383016020526040902080546000190190555b6001600160a01b03861615610922576001600160a01b03861660009081526003830160205260409020805460010190555b600085815260028301602052604080822080546001600160a01b0319166001600160a01b038a811691821790925591518893918516917fddf252ad1be2c89b69c2b068fc378daa952ba7f163c4a11628f55a4df523b3ef91a495945050505050565b6000807ff0c57e16840df040f15088dc2f81fe391c3923bec73e23a9662efc9c229c6a006102d3565b6109b5610e8e565b61039d8282610eb5565b61039d828260405180602001604052806000815250610ee6565b6000805160206116378339815191526001600160a01b038316610a1a57604051630b61174360e31b81526001600160a01b03841660048201526024016103c7565b6001600160a01b038481166000818152600584016020908152604080832094881680845294825291829020805460ff191687151590811790915591519182527f17307eab39ab6107e8899845ad3d59bd9653f200f220920489ca2b5937696c31910160405180910390a350505050565b6001600160a01b0383163b15610bae57604051630a85bd0160e11b81526001600160a01b0384169063150b7a0290610acc9088908890879087906004016115dc565b6020604051808303816000875af1925050508015610b07575060408051601f3d908101601f19168201909252610b0491810190611619565b60015b610b70573d808015610b35576040519150601f19603f3d011682016040523d82523d6000602084013e610b3a565b606091505b508051600003610b6857604051633250574960e11b81526001600160a01b03851660048201526024016103c7565b805181602001fd5b6001600160e01b03198116630a85bd0160e11b14610bac57604051633250574960e11b81526001600160a01b03851660048201526024016103c7565b505b5050505050565b606060008054610bc490611446565b80601f0160208091040260200160405190810160405280929190818152602001828054610bf090611446565b8015610c3d5780601f10610c1257610100808354040283529160200191610c3d565b820191906000526020600020905b815481529060010190602001808311610c2057829003601f168201915b5050505050905090565b60606000610c5483610efe565b600101905060008167ffffffffffffffff811115610c7457610c74611206565b6040519080825280601f01601f191660200182016040528015610c9e576020820181803683370190505b5090508181016020015b600019016f181899199a1a9b1b9c1cb0b131b232b360811b600a86061a8153600a8504945084610ca857509392505050565b60009081527f80bb2b638cc20bc4d0a60d66940f3ab4a00c1d7b313497ca82fb0b4ab007930260205260409020546001600160a01b031690565b6000805160206116378339815191528180610d3757506001600160a01b03831615155b15610df9576000610d47856107fb565b90506001600160a01b03841615801590610d735750836001600160a01b0316816001600160a01b031614155b8015610d865750610d8481856107ae565b155b15610daf5760405163a9fbf51f60e01b81526001600160a01b03851660048201526024016103c7565b8215610df75784866001600160a01b0316826001600160a01b03167f8c5be1e5ebec7d5bd14f71427d1e84f3dd0314c0f7b2291e5b200ac8c7c3b92560405160405180910390a45b505b600093845260040160205250506040902080546001600160a01b0319166001600160a01b0392909216919091179055565b610e35838383610fd6565b61044c576001600160a01b038316610e6357604051637e27328960e01b8152600481018290526024016103c7565b60405163177e802f60e01b81526001600160a01b0383166004820152602481018290526044016103c7565b610e9661103c565b610eb357604051631afcd79f60e31b815260040160405180910390fd5b565b610ebd610e8e565b60008051602061163783398151915280610ed784826114c7565b506001810161042b83826114c7565b610ef08383611056565b61044c336000858585610a8a565b60008072184f03e93ff9f4daa797ed6e38ed64bf6a1f0160401b8310610f3d5772184f03e93ff9f4daa797ed6e38ed64bf6a1f0160401b830492506040015b6d04ee2d6d415b85acef81000000008310610f69576d04ee2d6d415b85acef8100000000830492506020015b662386f26fc100008310610f8757662386f26fc10000830492506010015b6305f5e1008310610f9f576305f5e100830492506008015b6127108310610fb357612710830492506004015b60648310610fc5576064830492506002015b600a83106106805760010192915050565b60006001600160a01b038316158015906110345750826001600160a01b0316846001600160a01b03161480611010575061101084846107ae565b806110345750826001600160a01b031661102983610833565b6001600160a01b0316145b949350505050565b6000611046610984565b54600160401b900460ff16919050565b6001600160a01b03821661108057604051633250574960e11b8152600060048201526024016103c7565b600061108e8383600061087a565b90506001600160a01b0381161561044c576040516339e3563760e11b8152600060048201526024016103c7565b6001600160e01b0319811681146110d157600080fd5b50565b6000602082840312156110e657600080fd5b81356107a7816110bb565b60005b8381101561110c5781810151838201526020016110f4565b50506000910152565b6000815180845261112d8160208601602086016110f1565b601f01601f19169290920160200192915050565b6020815260006107a76020830184611115565b60006020828403121561116657600080fd5b5035919050565b80356001600160a01b038116811461068357600080fd5b6000806040838503121561119757600080fd5b6111a08361116d565b946020939093013593505050565b6000806000606084860312156111c357600080fd5b6111cc8461116d565b92506111da6020850161116d565b929592945050506040919091013590565b6000602082840312156111fd57600080fd5b6107a78261116d565b634e487b7160e01b600052604160045260246000fd5b60008067ffffffffffffffff84111561123757611237611206565b50604051601f19601f85018116603f0116810181811067ffffffffffffffff8211171561126657611266611206565b60405283815290508082840185101561127e57600080fd5b83836020830137600060208583010152509392505050565b600082601f8301126112a757600080fd5b6107a78383356020850161121c565b600080600080608085870312156112cc57600080fd5b843567ffffffffffffffff8111156112e357600080fd5b6112ef87828801611296565b945050602085013567ffffffffffffffff81111561130c57600080fd5b61131887828801611296565b935050604085013567ffffffffffffffff81111561133557600080fd5b61134187828801611296565b9250506113506060860161116d565b905092959194509250565b6000806040838503121561136e57600080fd5b6113778361116d565b91506020830135801515811461138c57600080fd5b809150509250929050565b600080600080608085870312156113ad57600080fd5b6113b68561116d565b93506113c46020860161116d565b925060408501359150606085013567ffffffffffffffff8111156113e757600080fd5b8501601f810187136113f857600080fd5b6114078782356020840161121c565b91505092959194509250565b6000806040838503121561142657600080fd5b61142f8361116d565b915061143d6020840161116d565b90509250929050565b600181811c9082168061145a57607f821691505b60208210810361147a57634e487b7160e01b600052602260045260246000fd5b50919050565b601f82111561044c57806000526020600020601f840160051c810160208510156114a75750805b601f840160051c820191505b81811015610bae57600081556001016114b3565b815167ffffffffffffffff8111156114e1576114e1611206565b6114f5816114ef8454611446565b84611480565b6020601f82116001811461152957600083156115115750848201515b600019600385901b1c1916600184901b178455610bae565b600084815260208120601f198516915b828110156115595787850151825560209485019460019092019101611539565b50848210156115775786840151600019600387901b60f8161c191681555b50505050600190811b01905550565b6000600182016115a657634e487b7160e01b600052601160045260246000fd5b5060010190565b600083516115bf8184602088016110f1565b8351908301906115d38183602088016110f1565b01949350505050565b6001600160a01b038581168252841660208201526040810183905260806060820181905260009061160f90830184611115565b9695505050505050565b60006020828403121561162b57600080fd5b81516107a7816110bb56fe80bb2b638cc20bc4d0a60d66940f3ab4a00c1d7b313497ca82fb0b4ab0079300a164736f6c634300081c000a",
  "linkReferences": {},
  "deployedLinkReferences": {}
}