{
  "_format": "hh-sol-artifact-1",
  "contractName": "Whitelist",
  "sourceName": "contracts/Whitelist.sol",
  "abi": [
    {
      "inputs": [],
      "name": "InvalidInitialization",
      "type": "error"
    },
    {
      "inputs": [],
      "name": "NotInitializing",
      "type": "error"
    },
    {
      "inputs": [
        {
          "internalType": "address",
          "name": "owner",
          "type": "address"
        }
      ],
      "name": "OwnableInvalidOwner",
      "type": "error"
    },
    {
      "inputs": [
        {
          "internalType": "address",
          "name": "account",
          "type": "address"
        }
      ],
      "name": "OwnableUnauthorizedAccount",
      "type": "error"
    },
    {
      "anonymous": false,
      "inputs": [
        {
          "indexed": true,
          "internalType": "address",
          "name": "account",
          "type": "address"
        }
      ],
      "name": "AddressAdded",
      "type": "event"
    },
    {
      "anonymous": false,
      "inputs": [
        {
          "indexed": true,
          "internalType": "address",
          "name": "account",
          "type": "address"
        }
      ],
      "name": "AddressRemoved",
      "type": "event"
    },
    {
      "anonymous": false,
      "inputs": [
        {
          "indexed": false,
          "internalType": "uint64",
          "name": "version",
          "type": "uint64"
        }
      ],
      "name": "Initialized",
      "type": "event"
    },
    {
      "anonymous": false,
      "inputs": [
        {
          "indexed": true,
          "internalType": "address",
          "name": "previousOwner",
          "type": "address"
        },
        {
          "indexed": true,
          "internalType": "address",
          "name": "newOwner",
          "type": "address"
        }
      ],
      "name": "OwnershipTransferred",
      "type": "event"
    },
    {
      "inputs": [
        {
          "internalType": "address",
          "name": "account",
          "type": "address"
        }
      ],
      "name": "addToWhitelist",
      "outputs": [],
      "stateMutability": "nonpayable",
      "type": "function"
    },
    {
      "inputs": [
        {
          "internalType": "address[]",
          "name": "accounts",
          "type": "address[]"
        }
      ],
      "name": "batchAddToWhitelist",
      "outputs": [],
      "stateMutability": "nonpayable",
      "type": "function"
    },
    {
      "inputs": [
        {
          "internalType": "address",
          "name": "owner_",
          "type": "address"
        }
      ],
      "name": "initialize",
      "outputs": [],
      "stateMutability": "nonpayable",
      "type": "function"
    },
    {
      "inputs": [
        {
          "internalType": "address",
          "name": "account",
          "type": "address"
        }
      ],
      "name": "isWhitelisted",
      "outputs": [
        {
          "internalType": "bool",
          "name": "",
          "type": "bool"
        }
      ],
      "stateMutability": "view",
      "type": "function"
    },
    {
      "inputs": [],
      "name": "owner",
      "outputs": [
        {
          "internalType": "address",
          "name": "",
          "type": "address"
        }
      ],
      "stateMutability": "view",
      "type": "function"
    },
    {
      "inputs": [
        {
          "internalType": "address",
          "name": "account",
          "type": "address"
        }
      ],
      "name": "removeFromWhitelist",
      "outputs": [],
      "stateMutability": "nonpayable",
      "type": "function"
    },
    {
      "inputs": [],
      "name": "renounceOwnership",
      "outputs": [],
      "stateMutability": "nonpayable",
      "type": "function"
    },
    {
      "inputs": [
        {
          "internalType": "address",
          "name": "newOwner",
          "type": "address"
        }
      ],
      "name": "transferOwnership",
      "outputs": [],
      "stateMutability": "nonpayable",
      "type": "function"
    }
  ],
  "bytecode": "0x6080604052348015600f57600080fd5b5061064e8061001f6000396000f3fe608060405234801561001057600080fd5b50600436106100885760003560e01c80638da5cb5b1161005b5780638da5cb5b146100fe578063c4d66de814610138578063e43252d71461014b578063f2fde38b1461015e57600080fd5b80632db6fa361461008d5780633af32abf146100a2578063715018a6146100e35780638ab1d681146100eb575b600080fd5b6100a061009b366004610584565b610171565b005b6100ce6100b03660046105fb565b6001600160a01b031660009081526020819052604090205460ff1690565b60405190151581526020015b60405180910390f35b6100a0610241565b6100a06100f93660046105fb565b610255565b7f9016d09d72d40fdae2fd8ceac6b6234c7706214fd39c1cd1e609a0528c199300546040516001600160a01b0390911681526020016100da565b6100a06101463660046105fb565b6102a6565b6100a06101593660046105fb565b6103bf565b6100a061016c3660046105fb565b610413565b610179610456565b60005b8181101561023c57600160008085858581811061019b5761019b61062b565b90506020020160208101906101b091906105fb565b6001600160a01b031681526020810191909152604001600020805460ff19169115159190911790558282828181106101ea576101ea61062b565b90506020020160208101906101ff91906105fb565b6001600160a01b03167fa226db3f664042183ee0281230bba26cbf7b5057e50aee7f25a175ff45ce4d7f60405160405180910390a260010161017c565b505050565b610249610456565b61025360006104b1565b565b61025d610456565b6001600160a01b038116600081815260208190526040808220805460ff19169055517f24a12366c02e13fe4a9e03d86a8952e85bb74a456c16e4a18b6d8295700b74bb9190a250565b7ff0c57e16840df040f15088dc2f81fe391c3923bec73e23a9662efc9c229c6a008054600160401b810460ff16159067ffffffffffffffff166000811580156102ec5750825b905060008267ffffffffffffffff1660011480156103095750303b155b905081158015610317575080155b156103355760405163f92ee8a960e01b815260040160405180910390fd5b845467ffffffffffffffff19166001178555831561035f57845460ff60401b1916600160401b1785555b61036833610522565b61037186610413565b83156103b757845460ff60401b19168555604051600181527fc7f505b2f371ae2175ee4913f4499e1f2633a7b5936321eed1cdaeb6115181d29060200160405180910390a15b505050505050565b6103c7610456565b6001600160a01b038116600081815260208190526040808220805460ff19166001179055517fa226db3f664042183ee0281230bba26cbf7b5057e50aee7f25a175ff45ce4d7f9190a250565b61041b610456565b6001600160a01b03811661044a57604051631e4fbdf760e01b8152600060048201526024015b60405180910390fd5b610453816104b1565b50565b336104887f9016d09d72d40fdae2fd8ceac6b6234c7706214fd39c1cd1e609a0528c199300546001600160a01b031690565b6001600160a01b0316146102535760405163118cdaa760e01b8152336004820152602401610441565b7f9016d09d72d40fdae2fd8ceac6b6234c7706214fd39c1cd1e609a0528c19930080546001600160a01b031981166001600160a01b03848116918217845560405192169182907f8be0079c531659141344cd1fd0a4f28419497f9722a3daafe3b4186f6b6457e090600090a3505050565b61052a610533565b6104538161057c565b7ff0c57e16840df040f15088dc2f81fe391c3923bec73e23a9662efc9c229c6a0054600160401b900460ff1661025357604051631afcd79f60e31b815260040160405180910390fd5b61041b610533565b6000806020838503121561059757600080fd5b823567ffffffffffffffff8111156105ae57600080fd5b8301601f810185136105bf57600080fd5b803567ffffffffffffffff8111156105d657600080fd5b8560208260051b84010111156105eb57600080fd5b6020919091019590945092505050565b60006020828403121561060d57600080fd5b81356001600160a01b038116811461062457600080fd5b9392505050565b634e487b7160e01b600052603260045260246000fdfea164736f6c634300081c000a",
  "linkReferences": {},
  "deployedLinkReferences": {}
}