{"contracts/CustomNFT.sol":{"CustomNFT":{"abi":[{"inputs":[{"internalType":"address","name":"sender","type":"address"},{"internalType":"uint256","name":"tokenId","type":"uint256"},{"internalType":"address","name":"owner","type":"address"}],"name":"ERC721IncorrectOwner","type":"error"},{"inputs":[{"internalType":"address","name":"operator","type":"address"},{"internalType":"uint256","name":"tokenId","type":"uint256"}],"name":"ERC721InsufficientApproval","type":"error"},{"inputs":[{"internalType":"address","name":"approver","type":"address"}],"name":"ERC721InvalidApprover","type":"error"},{"inputs":[{"internalType":"address","name":"operator","type":"address"}],"name":"ERC721InvalidOperator","type":"error"},{"inputs":[{"internalType":"address","name":"owner","type":"address"}],"name":"ERC721InvalidOwner","type":"error"},{"inputs":[{"internalType":"address","name":"receiver","type":"address"}],"name":"ERC721InvalidReceiver","type":"error"},{"inputs":[{"internalType":"address","name":"sender","type":"address"}],"name":"ERC721InvalidSender","type":"error"},{"inputs":[{"internalType":"uint256","name":"tokenId","type":"uint256"}],"name":"ERC721NonexistentToken","type":"error"},{"inputs":[],"name":"InvalidInitialization","type":"error"},{"inputs":[],"name":"NotInitializing","type":"error"},{"anonymous":false,"inputs":[{"indexed":true,"internalType":"address","name":"owner","type":"address"},{"indexed":true,"internalType":"address","name":"approved","type":"address"},{"indexed":true,"internalType":"uint256","name":"tokenId","type":"uint256"}],"name":"Approval","type":"event"},{"anonymous":false,"inputs":[{"indexed":true,"internalType":"address","name":"owner","type":"address"},{"indexed":true,"internalType":"address","name":"operator","type":"address"},{"indexed":false,"internalType":"bool","name":"approved","type":"bool"}],"name":"ApprovalForAll","type":"event"},{"anonymous":false,"inputs":[{"indexed":false,"internalType":"uint64","name":"version","type":"uint64"}],"name":"Initialized","type":"event"},{"anonymous":false,"inputs":[{"indexed":true,"internalType":"address","name":"from","type":"address"},{"indexed":true,"internalType":"address","name":"to","type":"address"},{"indexed":true,"internalType":"uint256","name":"tokenId","type":"uint256"}],"name":"Transfer","type":"event"},{"inputs":[{"internalType":"address","name":"to","type":"address"},{"internalType":"uint256","name":"tokenId","type":"uint256"}],"name":"approve","outputs":[],"stateMutability":"nonpayable","type":"function"},{"inputs":[{"internalType":"address","name":"owner","type":"address"}],"name":"balanceOf","outputs":[{"internalType":"uint256","name":"","type":"uint256"}],"stateMutability":"view","type":"function"},{"inputs":[],"name":"claimContract","outputs":[{"internalType":"address","name":"","type":"address"}],"stateMutability":"view","type":"function"},{"inputs":[{"internalType":"uint256","name":"tokenId","type":"uint256"}],"name":"getApproved","outputs":[{"internalType":"address","name":"","type":"address"}],"stateMutability":"view","type":"function"},{"inputs":[{"internalType":"string","name":"name_","type":"string"},{"internalType":"string","name":"symbol_","type":"string"},{"internalType":"string","name":"baseURI_","type":"string"},{"internalType":"address","name":"claimContract_","type":"address"}],"name":"initialize","outputs":[],"stateMutability":"nonpayable","type":"function"},{"inputs":[{"internalType":"address","name":"owner","type":"address"},{"internalType":"address","name":"operator","type":"address"}],"name":"isApprovedForAll","outputs":[{"internalType":"bool","name":"","type":"bool"}],"stateMutability":"view","type":"function"},{"inputs":[{"internalType":"address","name":"to","type":"address"}],"name":"mint","outputs":[{"internalType":"uint256","name":"","type":"uint256"}],"stateMutability":"nonpayable","type":"function"},{"inputs":[],"name":"name","outputs":[{"internalType":"string","name":"","type":"string"}],"stateMutability":"view","type":"function"},{"inputs":[{"internalType":"uint256","name":"tokenId","type":"uint256"}],"name":"ownerOf","outputs":[{"internalType":"address","name":"","type":"address"}],"stateMutability":"view","type":"function"},{"inputs":[{"internalType":"address","name":"from","type":"address"},{"internalType":"address","name":"to","type":"address"},{"internalType":"uint256","name":"tokenId","type":"uint256"}],"name":"safeTransferFrom","outputs":[],"stateMutability":"nonpayable","type":"function"},{"inputs":[{"internalType":"address","name":"from","type":"address"},{"internalType":"address","name":"to","type":"address"},{"internalType":"uint256","name":"tokenId","type":"uint256"},{"internalType":"bytes","name":"data","type":"bytes"}],"name":"safeTransferFrom","outputs":[],"stateMutability":"nonpayable","type":"function"},{"inputs":[{"internalType":"address","name":"operator","type":"address"},{"internalType":"bool","name":"approved","type":"bool"}],"name":"setApprovalForAll","outputs":[],"stateMutability":"nonpayable","type":"function"},{"inputs":[{"internalType":"address","name":"_claimContract","type":"address"}],"name":"setClaimContract","outputs":[],"stateMutability":"nonpayable","type":"function"},{"inputs":[{"internalType":"bytes4","name":"interfaceId","type":"bytes4"}],"name":"supportsInterface","outputs":[{"internalType":"bool","name":"","type":"bool"}],"stateMutability":"view","type":"function"},{"inputs":[],"name":"symbol","outputs":[{"internalType":"string","name":"","type":"string"}],"stateMutability":"view","type":"function"},{"inputs":[{"internalType":"uint256","name":"tokenId","type":"uint256"}],"name":"tokenURI","outputs":[{"internalType":"string","name":"","type":"string"}],"stateMutability":"view","type":"function"},{"inputs":[{"internalType":"address","name":"from","type":"address"},{"internalType":"address","name":"to","type":"address"},{"internalType":"uint256","name":"tokenId","type":"uint256"}],"name":"transferFrom","outputs":[],"stateMutability":"nonpayable","type":"function"}],"evm":{"bytecode":{"linkReferences":{},"object":"6080604052348015600f57600080fd5b506116638061001f6000396000f3fe608060405234801561001057600080fd5b506004361061010b5760003560e01c80636352211e116100a257806395d89b411161007157806395d89b4114610233578063a22cb4651461023b578063b88d4fde1461024e578063c87b56dd14610261578063e985e9c51461027457600080fd5b80636352211e146101d957806366345da4146101ec5780636a627842146101ff57806370a082311461022057600080fd5b806323b872dd116100de57806323b872dd1461018d57806342842e0e146101a05780634a30d3eb146101b35780635c6d8da1146101c657600080fd5b806301ffc9a71461011057806306fdde0314610138578063081812fc1461014d578063095ea7b314610178575b600080fd5b61012361011e3660046110d4565b610287565b60405190151581526020015b60405180910390f35b6101406102d9565b60405161012f9190611141565b61016061015b366004611154565b61037d565b6040516001600160a01b03909116815260200161012f565b61018b610186366004611184565b610392565b005b61018b61019b3660046111ae565b6103a1565b61018b6101ae3660046111ae565b610431565b61018b6101c13660046111eb565b610451565b61018b6101d43660046112b6565b6104cc565b6101606101e7366004611154565b6105f7565b600154610160906001600160a01b031681565b61021261020d3660046111eb565b610602565b60405190815260200161012f565b61021261022e3660046111eb565b610688565b6101406106e4565b61018b61024936600461135b565b610723565b61018b61025c366004611397565b61072e565b61014061026f366004611154565b610746565b610123610282366004611413565b6107ae565b60006001600160e01b031982166380ac58cd60e01b14806102b857506001600160e01b03198216635b5e139f60e01b145b806102d357506301ffc9a760e01b6001600160e01b03198316145b92915050565b60008051602061163783398151915280546060919081906102f990611446565b80601f016020809104026020016040519081016040528092919081815260200182805461032590611446565b80156103725780601f1061034757610100808354040283529160200191610372565b820191906000526020600020905b81548152906001019060200180831161035557829003601f168201915b505050505091505090565b6000610388826107fb565b506102d382610833565b61039d82823361086d565b5050565b6001600160a01b0382166103d057604051633250574960e11b8152600060048201526024015b60405180910390fd5b60006103dd83833361087a565b9050836001600160a01b0316816001600160a01b03161461042b576040516364283d7b60e01b81526001600160a01b03808616600483015260248201849052821660448201526064016103c7565b50505050565b61044c8383836040518060200160405280600081525061072e565b505050565b6001546001600160a01b0316156104aa5760405162461bcd60e51b815260206004820152601a60248201527f436c61696d20636f6e747261637420616c72656164792073657400000000000060448201526064016103c7565b600180546001600160a01b0319166001600160a01b0392909216919091179055565b60006104d6610984565b805490915060ff600160401b820416159067ffffffffffffffff166000811580156104fe5750825b905060008267ffffffffffffffff16600114801561051b5750303b155b905081158015610529575080155b156105475760405163f92ee8a960e01b815260040160405180910390fd5b845467ffffffffffffffff19166001178555831561057157845460ff60401b1916600160401b1785555b61057b89896109ad565b600061058788826114c7565b50600180546001600160a01b0319166001600160a01b03881617815560025583156105ec57845460ff60401b19168555604051600181527fc7f505b2f371ae2175ee4913f4499e1f2633a7b5936321eed1cdaeb6115181d29060200160405180910390a15b505050505050505050565b60006102d3826107fb565b6001546000906001600160a01b0316331461065f5760405162461bcd60e51b815260206004820152601c60248201527f43616c6c6572206973206e6f7420636c61696d20636f6e74726163740000000060448201526064016103c7565b60028054908190600061067183611586565b919050555061068083826109bf565b90505b919050565b60006000805160206116378339815191526001600160a01b0383166106c3576040516322718ad960e21b8152600060048201526024016103c7565b6001600160a01b039092166000908152600390920160205250604090205490565b7f80bb2b638cc20bc4d0a60d66940f3ab4a00c1d7b313497ca82fb0b4ab00793018054606091600080516020611637833981519152916102f990611446565b61039d3383836109d9565b6107398484846103a1565b61042b3385858585610a8a565b6060610751826107fb565b50600061075c610bb5565b9050600081511161077c57604051806020016040528060008152506107a7565b8061078684610c47565b6040516020016107979291906115ad565b6040516020818303038152906040525b9392505050565b6001600160a01b0391821660009081527f80bb2b638cc20bc4d0a60d66940f3ab4a00c1d7b313497ca82fb0b4ab00793056020908152604080832093909416825291909152205460ff1690565b60008061080783610cda565b90506001600160a01b03811661068057604051637e27328960e01b8152600481018490526024016103c7565b60009081527f80bb2b638cc20bc4d0a60d66940f3ab4a00c1d7b313497ca82fb0b4ab007930460205260409020546001600160a01b031690565b61044c8383836001610d14565b60006000805160206116378339815191528161089585610cda565b90506001600160a01b038416156108b1576108b1818587610e2a565b6001600160a01b038116156108f1576108ce600086600080610d14565b6001600160a01b0381166000908152600383016020526040902080546000190190555b6001600160a01b03861615610922576001600160a01b03861660009081526003830160205260409020805460010190555b600085815260028301602052604080822080546001600160a01b0319166001600160a01b038a811691821790925591518893918516917fddf252ad1be2c89b69c2b068fc378daa952ba7f163c4a11628f55a4df523b3ef91a495945050505050565b6000807ff0c57e16840df040f15088dc2f81fe391c3923bec73e23a9662efc9c229c6a006102d3565b6109b5610e8e565b61039d8282610eb5565b61039d828260405180602001604052806000815250610ee6565b6000805160206116378339815191526001600160a01b038316610a1a57604051630b61174360e31b81526001600160a01b03841660048201526024016103c7565b6001600160a01b038481166000818152600584016020908152604080832094881680845294825291829020805460ff191687151590811790915591519182527f17307eab39ab6107e8899845ad3d59bd9653f200f220920489ca2b5937696c31910160405180910390a350505050565b6001600160a01b0383163b15610bae57604051630a85bd0160e11b81526001600160a01b0384169063150b7a0290610acc9088908890879087906004016115dc565b6020604051808303816000875af1925050508015610b07575060408051601f3d908101601f19168201909252610b0491810190611619565b60015b610b70573d808015610b35576040519150601f19603f3d011682016040523d82523d6000602084013e610b3a565b606091505b508051600003610b6857604051633250574960e11b81526001600160a01b03851660048201526024016103c7565b805181602001fd5b6001600160e01b03198116630a85bd0160e11b14610bac57604051633250574960e11b81526001600160a01b03851660048201526024016103c7565b505b5050505050565b606060008054610bc490611446565b80601f0160208091040260200160405190810160405280929190818152602001828054610bf090611446565b8015610c3d5780601f10610c1257610100808354040283529160200191610c3d565b820191906000526020600020905b815481529060010190602001808311610c2057829003601f168201915b5050505050905090565b60606000610c5483610efe565b600101905060008167ffffffffffffffff811115610c7457610c74611206565b6040519080825280601f01601f191660200182016040528015610c9e576020820181803683370190505b5090508181016020015b600019016f181899199a1a9b1b9c1cb0b131b232b360811b600a86061a8153600a8504945084610ca857509392505050565b60009081527f80bb2b638cc20bc4d0a60d66940f3ab4a00c1d7b313497ca82fb0b4ab007930260205260409020546001600160a01b031690565b6000805160206116378339815191528180610d3757506001600160a01b03831615155b15610df9576000610d47856107fb565b90506001600160a01b03841615801590610d735750836001600160a01b0316816001600160a01b031614155b8015610d865750610d8481856107ae565b155b15610daf5760405163a9fbf51f60e01b81526001600160a01b03851660048201526024016103c7565b8215610df75784866001600160a01b0316826001600160a01b03167f8c5be1e5ebec7d5bd14f71427d1e84f3dd0314c0f7b2291e5b200ac8c7c3b92560405160405180910390a45b505b600093845260040160205250506040902080546001600160a01b0319166001600160a01b0392909216919091179055565b610e35838383610fd6565b61044c576001600160a01b038316610e6357604051637e27328960e01b8152600481018290526024016103c7565b60405163177e802f60e01b81526001600160a01b0383166004820152602481018290526044016103c7565b610e9661103c565b610eb357604051631afcd79f60e31b815260040160405180910390fd5b565b610ebd610e8e565b60008051602061163783398151915280610ed784826114c7565b506001810161042b83826114c7565b610ef08383611056565b61044c336000858585610a8a565b60008072184f03e93ff9f4daa797ed6e38ed64bf6a1f0160401b8310610f3d5772184f03e93ff9f4daa797ed6e38ed64bf6a1f0160401b830492506040015b6d04ee2d6d415b85acef81000000008310610f69576d04ee2d6d415b85acef8100000000830492506020015b662386f26fc100008310610f8757662386f26fc10000830492506010015b6305f5e1008310610f9f576305f5e100830492506008015b6127108310610fb357612710830492506004015b60648310610fc5576064830492506002015b600a83106106805760010192915050565b60006001600160a01b038316158015906110345750826001600160a01b0316846001600160a01b03161480611010575061101084846107ae565b806110345750826001600160a01b031661102983610833565b6001600160a01b0316145b949350505050565b6000611046610984565b54600160401b900460ff16919050565b6001600160a01b03821661108057604051633250574960e11b8152600060048201526024016103c7565b600061108e8383600061087a565b90506001600160a01b0381161561044c576040516339e3563760e11b8152600060048201526024016103c7565b6001600160e01b0319811681146110d157600080fd5b50565b6000602082840312156110e657600080fd5b81356107a7816110bb565b60005b8381101561110c5781810151838201526020016110f4565b50506000910152565b6000815180845261112d8160208601602086016110f1565b601f01601f19169290920160200192915050565b6020815260006107a76020830184611115565b60006020828403121561116657600080fd5b5035919050565b80356001600160a01b038116811461068357600080fd5b6000806040838503121561119757600080fd5b6111a08361116d565b946020939093013593505050565b6000806000606084860312156111c357600080fd5b6111cc8461116d565b92506111da6020850161116d565b929592945050506040919091013590565b6000602082840312156111fd57600080fd5b6107a78261116d565b634e487b7160e01b600052604160045260246000fd5b60008067ffffffffffffffff84111561123757611237611206565b50604051601f19601f85018116603f0116810181811067ffffffffffffffff8211171561126657611266611206565b60405283815290508082840185101561127e57600080fd5b83836020830137600060208583010152509392505050565b600082601f8301126112a757600080fd5b6107a78383356020850161121c565b600080600080608085870312156112cc57600080fd5b843567ffffffffffffffff8111156112e357600080fd5b6112ef87828801611296565b945050602085013567ffffffffffffffff81111561130c57600080fd5b61131887828801611296565b935050604085013567ffffffffffffffff81111561133557600080fd5b61134187828801611296565b9250506113506060860161116d565b905092959194509250565b6000806040838503121561136e57600080fd5b6113778361116d565b91506020830135801515811461138c57600080fd5b809150509250929050565b600080600080608085870312156113ad57600080fd5b6113b68561116d565b93506113c46020860161116d565b925060408501359150606085013567ffffffffffffffff8111156113e757600080fd5b8501601f810187136113f857600080fd5b6114078782356020840161121c565b91505092959194509250565b6000806040838503121561142657600080fd5b61142f8361116d565b915061143d6020840161116d565b90509250929050565b600181811c9082168061145a57607f821691505b60208210810361147a57634e487b7160e01b600052602260045260246000fd5b50919050565b601f82111561044c57806000526020600020601f840160051c810160208510156114a75750805b601f840160051c820191505b81811015610bae57600081556001016114b3565b815167ffffffffffffffff8111156114e1576114e1611206565b6114f5816114ef8454611446565b84611480565b6020601f82116001811461152957600083156115115750848201515b600019600385901b1c1916600184901b178455610bae565b600084815260208120601f198516915b828110156115595787850151825560209485019460019092019101611539565b50848210156115775786840151600019600387901b60f8161c191681555b50505050600190811b01905550565b6000600182016115a657634e487b7160e01b600052601160045260246000fd5b5060010190565b600083516115bf8184602088016110f1565b8351908301906115d38183602088016110f1565b01949350505050565b6001600160a01b038581168252841660208201526040810183905260806060820181905260009061160f90830184611115565b9695505050505050565b60006020828403121561162b57600080fd5b81516107a7816110bb56fe80bb2b638cc20bc4d0a60d66940f3ab4a00c1d7b313497ca82fb0b4ab0079300a164736f6c634300081c000a","opcodes":"PUSH1 0x80 PUSH1 0x40 MSTORE CALLVALUE DUP1 ISZERO PUSH1 0xF JUMPI PUSH1 0x0 DUP1 REVERT JUMPDEST POP PUSH2 0x1663 DUP1 PUSH2 0x1F PUSH1 0x0 CODECOPY PUSH1 0x0 RETURN INVALID PUSH1 0x80 PUSH1 0x40 MSTORE CALLVALUE DUP1 ISZERO PUSH2 0x10 JUMPI PUSH1 0x0 DUP1 REVERT JUMPDEST POP PUSH1 0x4 CALLDATASIZE LT PUSH2 0x10B JUMPI PUSH1 0x0 CALLDATALOAD PUSH1 0xE0 SHR DUP1 PUSH4 0x6352211E GT PUSH2 0xA2 JUMPI DUP1 PUSH4 0x95D89B41 GT PUSH2 0x71 JUMPI DUP1 PUSH4 0x95D89B41 EQ PUSH2 0x233 JUMPI DUP1 PUSH4 0xA22CB465 EQ PUSH2 0x23B JUMPI DUP1 PUSH4 0xB88D4FDE EQ PUSH2 0x24E JUMPI DUP1 PUSH4 0xC87B56DD EQ PUSH2 0x261 JUMPI DUP1 PUSH4 0xE985E9C5 EQ PUSH2 0x274 JUMPI PUSH1 0x0 DUP1 REVERT JUMPDEST DUP1 PUSH4 0x6352211E EQ PUSH2 0x1D9 JUMPI DUP1 PUSH4 0x66345DA4 EQ PUSH2 0x1EC JUMPI DUP1 PUSH4 0x6A627842 EQ PUSH2 0x1FF JUMPI DUP1 PUSH4 0x70A08231 EQ PUSH2 0x220 JUMPI PUSH1 0x0 DUP1 REVERT JUMPDEST DUP1 PUSH4 0x23B872DD GT PUSH2 0xDE JUMPI DUP1 PUSH4 0x23B872DD EQ PUSH2 0x18D JUMPI DUP1 PUSH4 0x42842E0E EQ PUSH2 0x1A0 JUMPI DUP1 PUSH4 0x4A30D3EB EQ PUSH2 0x1B3 JUMPI DUP1 PUSH4 0x5C6D8DA1 EQ PUSH2 0x1C6 JUMPI PUSH1 0x0 DUP1 REVERT JUMPDEST DUP1 PUSH4 0x1FFC9A7 EQ PUSH2 0x110 JUMPI DUP1 PUSH4 0x6FDDE03 EQ PUSH2 0x138 JUMPI DUP1 PUSH4 0x81812FC EQ PUSH2 0x14D JUMPI DUP1 PUSH4 0x95EA7B3 EQ PUSH2 0x178 JUMPI JUMPDEST PUSH1 0x0 DUP1 REVERT JUMPDEST PUSH2 0x123 PUSH2 0x11E CALLDATASIZE PUSH1 0x4 PUSH2 0x10D4 JUMP JUMPDEST PUSH2 0x287 JUMP JUMPDEST PUSH1 0x40 MLOAD SWAP1 ISZERO ISZERO DUP2 MSTORE PUSH1 0x20 ADD JUMPDEST PUSH1 0x40 MLOAD DUP1 SWAP2 SUB SWAP1 RETURN JUMPDEST PUSH2 0x140 PUSH2 0x2D9 JUMP JUMPDEST PUSH1 0x40 MLOAD PUSH2 0x12F SWAP2 SWAP1 PUSH2 0x1141 JUMP JUMPDEST PUSH2 0x160 PUSH2 0x15B CALLDATASIZE PUSH1 0x4 PUSH2 0x1154 JUMP JUMPDEST PUSH2 0x37D JUMP JUMPDEST PUSH1 0x40 MLOAD PUSH1 0x1 PUSH1 0x1 PUSH1 0xA0 SHL SUB SWAP1 SWAP2 AND DUP2 MSTORE PUSH1 0x20 ADD PUSH2 0x12F JUMP JUMPDEST PUSH2 0x18B PUSH2 0x186 CALLDATASIZE PUSH1 0x4 PUSH2 0x1184 JUMP JUMPDEST PUSH2 0x392 JUMP JUMPDEST STOP JUMPDEST PUSH2 0x18B PUSH2 0x19B CALLDATASIZE PUSH1 0x4 PUSH2 0x11AE JUMP JUMPDEST PUSH2 0x3A1 JUMP JUMPDEST PUSH2 0x18B PUSH2 0x1AE CALLDATASIZE PUSH1 0x4 PUSH2 0x11AE JUMP JUMPDEST PUSH2 0x431 JUMP JUMPDEST PUSH2 0x18B PUSH2 0x1C1 CALLDATASIZE PUSH1 0x4 PUSH2 0x11EB JUMP JUMPDEST PUSH2 0x451 JUMP JUMPDEST PUSH2 0x18B PUSH2 0x1D4 CALLDATASIZE PUSH1 0x4 PUSH2 0x12B6 JUMP JUMPDEST PUSH2 0x4CC JUMP JUMPDEST PUSH2 0x160 PUSH2 0x1E7 CALLDATASIZE PUSH1 0x4 PUSH2 0x1154 JUMP JUMPDEST PUSH2 0x5F7 JUMP JUMPDEST PUSH1 0x1 SLOAD PUSH2 0x160 SWAP1 PUSH1 0x1 PUSH1 0x1 PUSH1 0xA0 SHL SUB AND DUP2 JUMP JUMPDEST PUSH2 0x212 PUSH2 0x20D CALLDATASIZE PUSH1 0x4 PUSH2 0x11EB JUMP JUMPDEST PUSH2 0x602 JUMP JUMPDEST PUSH1 0x40 MLOAD SWAP1 DUP2 MSTORE PUSH1 0x20 ADD PUSH2 0x12F JUMP JUMPDEST PUSH2 0x212 PUSH2 0x22E CALLDATASIZE PUSH1 0x4 PUSH2 0x11EB JUMP JUMPDEST PUSH2 0x688 JUMP JUMPDEST PUSH2 0x140 PUSH2 0x6E4 JUMP JUMPDEST PUSH2 0x18B PUSH2 0x249 CALLDATASIZE PUSH1 0x4 PUSH2 0x135B JUMP JUMPDEST PUSH2 0x723 JUMP JUMPDEST PUSH2 0x18B PUSH2 0x25C CALLDATASIZE PUSH1 0x4 PUSH2 0x1397 JUMP JUMPDEST PUSH2 0x72E JUMP JUMPDEST PUSH2 0x140 PUSH2 0x26F CALLDATASIZE PUSH1 0x4 PUSH2 0x1154 JUMP JUMPDEST PUSH2 0x746 JUMP JUMPDEST PUSH2 0x123 PUSH2 0x282 CALLDATASIZE PUSH1 0x4 PUSH2 0x1413 JUMP JUMPDEST PUSH2 0x7AE JUMP JUMPDEST PUSH1 0x0 PUSH1 0x1 PUSH1 0x1 PUSH1 0xE0 SHL SUB NOT DUP3 AND PUSH4 0x80AC58CD PUSH1 0xE0 SHL EQ DUP1 PUSH2 0x2B8 JUMPI POP PUSH1 0x1 PUSH1 0x1 PUSH1 0xE0 SHL SUB NOT DUP3 AND PUSH4 0x5B5E139F PUSH1 0xE0 SHL EQ JUMPDEST DUP1 PUSH2 0x2D3 JUMPI POP PUSH4 0x1FFC9A7 PUSH1 0xE0 SHL PUSH1 0x1 PUSH1 0x1 PUSH1 0xE0 SHL SUB NOT DUP4 AND EQ JUMPDEST SWAP3 SWAP2 POP POP JUMP JUMPDEST PUSH1 0x0 DUP1 MLOAD PUSH1 0x20 PUSH2 0x1637 DUP4 CODECOPY DUP2 MLOAD SWAP2 MSTORE DUP1 SLOAD PUSH1 0x60 SWAP2 SWAP1 DUP2 SWAP1 PUSH2 0x2F9 SWAP1 PUSH2 0x1446 JUMP JUMPDEST DUP1 PUSH1 0x1F ADD PUSH1 0x20 DUP1 SWAP2 DIV MUL PUSH1 0x20 ADD PUSH1 0x40 MLOAD SWAP1 DUP2 ADD PUSH1 0x40 MSTORE DUP1 SWAP3 SWAP2 SWAP1 DUP2 DUP2 MSTORE PUSH1 0x20 ADD DUP3 DUP1 SLOAD PUSH2 0x325 SWAP1 PUSH2 0x1446 JUMP JUMPDEST DUP1 ISZERO PUSH2 0x372 JUMPI DUP1 PUSH1 0x1F LT PUSH2 0x347 JUMPI PUSH2 0x100 DUP1 DUP4 SLOAD DIV MUL DUP4 MSTORE SWAP2 PUSH1 0x20 ADD SWAP2 PUSH2 0x372 JUMP JUMPDEST DUP3 ADD SWAP2 SWAP1 PUSH1 0x0 MSTORE PUSH1 0x20 PUSH1 0x0 KECCAK256 SWAP1 JUMPDEST DUP2 SLOAD DUP2 MSTORE SWAP1 PUSH1 0x1 ADD SWAP1 PUSH1 0x20 ADD DUP1 DUP4 GT PUSH2 0x355 JUMPI DUP3 SWAP1 SUB PUSH1 0x1F AND DUP3 ADD SWAP2 JUMPDEST POP POP POP POP POP SWAP2 POP POP SWAP1 JUMP JUMPDEST PUSH1 0x0 PUSH2 0x388 DUP3 PUSH2 0x7FB JUMP JUMPDEST POP PUSH2 0x2D3 DUP3 PUSH2 0x833 JUMP JUMPDEST PUSH2 0x39D DUP3 DUP3 CALLER PUSH2 0x86D JUMP JUMPDEST POP POP JUMP JUMPDEST PUSH1 0x1 PUSH1 0x1 PUSH1 0xA0 SHL SUB DUP3 AND PUSH2 0x3D0 JUMPI PUSH1 0x40 MLOAD PUSH4 0x32505749 PUSH1 0xE1 SHL DUP2 MSTORE PUSH1 0x0 PUSH1 0x4 DUP3 ADD MSTORE PUSH1 0x24 ADD JUMPDEST PUSH1 0x40 MLOAD DUP1 SWAP2 SUB SWAP1 REVERT JUMPDEST PUSH1 0x0 PUSH2 0x3DD DUP4 DUP4 CALLER PUSH2 0x87A JUMP JUMPDEST SWAP1 POP DUP4 PUSH1 0x1 PUSH1 0x1 PUSH1 0xA0 SHL SUB AND DUP2 PUSH1 0x1 PUSH1 0x1 PUSH1 0xA0 SHL SUB AND EQ PUSH2 0x42B JUMPI PUSH1 0x40 MLOAD PUSH4 0x64283D7B PUSH1 0xE0 SHL DUP2 MSTORE PUSH1 0x1 PUSH1 0x1 PUSH1 0xA0 SHL SUB DUP1 DUP7 AND PUSH1 0x4 DUP4 ADD MSTORE PUSH1 0x24 DUP3 ADD DUP5 SWAP1 MSTORE DUP3 AND PUSH1 0x44 DUP3 ADD MSTORE PUSH1 0x64 ADD PUSH2 0x3C7 JUMP JUMPDEST POP POP POP POP JUMP JUMPDEST PUSH2 0x44C DUP4 DUP4 DUP4 PUSH1 0x40 MLOAD DUP1 PUSH1 0x20 ADD PUSH1 0x40 MSTORE DUP1 PUSH1 0x0 DUP2 MSTORE POP PUSH2 0x72E JUMP JUMPDEST POP POP POP JUMP JUMPDEST PUSH1 0x1 SLOAD PUSH1 0x1 PUSH1 0x1 PUSH1 0xA0 SHL SUB AND ISZERO PUSH2 0x4AA JUMPI PUSH1 0x40 MLOAD PUSH3 0x461BCD PUSH1 0xE5 SHL DUP2 MSTORE PUSH1 0x20 PUSH1 0x4 DUP3 ADD MSTORE PUSH1 0x1A PUSH1 0x24 DUP3 ADD MSTORE PUSH32 0x436C61696D20636F6E747261637420616C726561647920736574000000000000 PUSH1 0x44 DUP3 ADD MSTORE PUSH1 0x64 ADD PUSH2 0x3C7 JUMP JUMPDEST PUSH1 0x1 DUP1 SLOAD PUSH1 0x1 PUSH1 0x1 PUSH1 0xA0 SHL SUB NOT AND PUSH1 0x1 PUSH1 0x1 PUSH1 0xA0 SHL SUB SWAP3 SWAP1 SWAP3 AND SWAP2 SWAP1 SWAP2 OR SWAP1 SSTORE JUMP JUMPDEST PUSH1 0x0 PUSH2 0x4D6 PUSH2 0x984 JUMP JUMPDEST DUP1 SLOAD SWAP1 SWAP2 POP PUSH1 0xFF PUSH1 0x1 PUSH1 0x40 SHL DUP3 DIV AND ISZERO SWAP1 PUSH8 0xFFFFFFFFFFFFFFFF AND PUSH1 0x0 DUP2 ISZERO DUP1 ISZERO PUSH2 0x4FE JUMPI POP DUP3 JUMPDEST SWAP1 POP PUSH1 0x0 DUP3 PUSH8 0xFFFFFFFFFFFFFFFF AND PUSH1 0x1 EQ DUP1 ISZERO PUSH2 0x51B JUMPI POP ADDRESS EXTCODESIZE ISZERO JUMPDEST SWAP1 POP DUP2 ISZERO DUP1 ISZERO PUSH2 0x529 JUMPI POP DUP1 ISZERO JUMPDEST ISZERO PUSH2 0x547 JUMPI PUSH1 0x40 MLOAD PUSH4 0xF92EE8A9 PUSH1 0xE0 SHL DUP2 MSTORE PUSH1 0x4 ADD PUSH1 0x40 MLOAD DUP1 SWAP2 SUB SWAP1 REVERT JUMPDEST DUP5 SLOAD PUSH8 0xFFFFFFFFFFFFFFFF NOT AND PUSH1 0x1 OR DUP6 SSTORE DUP4 ISZERO PUSH2 0x571 JUMPI DUP5 SLOAD PUSH1 0xFF PUSH1 0x40 SHL NOT AND PUSH1 0x1 PUSH1 0x40 SHL OR DUP6 SSTORE JUMPDEST PUSH2 0x57B DUP10 DUP10 PUSH2 0x9AD JUMP JUMPDEST PUSH1 0x0 PUSH2 0x587 DUP9 DUP3 PUSH2 0x14C7 JUMP JUMPDEST POP PUSH1 0x1 DUP1 SLOAD PUSH1 0x1 PUSH1 0x1 PUSH1 0xA0 SHL SUB NOT AND PUSH1 0x1 PUSH1 0x1 PUSH1 0xA0 SHL SUB DUP9 AND OR DUP2 SSTORE PUSH1 0x2 SSTORE DUP4 ISZERO PUSH2 0x5EC JUMPI DUP5 SLOAD PUSH1 0xFF PUSH1 0x40 SHL NOT AND DUP6 SSTORE PUSH1 0x40 MLOAD PUSH1 0x1 DUP2 MSTORE PUSH32 0xC7F505B2F371AE2175EE4913F4499E1F2633A7B5936321EED1CDAEB6115181D2 SWAP1 PUSH1 0x20 ADD PUSH1 0x40 MLOAD DUP1 SWAP2 SUB SWAP1 LOG1 JUMPDEST POP POP POP POP POP POP POP POP POP JUMP JUMPDEST PUSH1 0x0 PUSH2 0x2D3 DUP3 PUSH2 0x7FB JUMP JUMPDEST PUSH1 0x1 SLOAD PUSH1 0x0 SWAP1 PUSH1 0x1 PUSH1 0x1 PUSH1 0xA0 SHL SUB AND CALLER EQ PUSH2 0x65F JUMPI PUSH1 0x40 MLOAD PUSH3 0x461BCD PUSH1 0xE5 SHL DUP2 MSTORE PUSH1 0x20 PUSH1 0x4 DUP3 ADD MSTORE PUSH1 0x1C PUSH1 0x24 DUP3 ADD MSTORE PUSH32 0x43616C6C6572206973206E6F7420636C61696D20636F6E747261637400000000 PUSH1 0x44 DUP3 ADD MSTORE PUSH1 0x64 ADD PUSH2 0x3C7 JUMP JUMPDEST PUSH1 0x2 DUP1 SLOAD SWAP1 DUP2 SWAP1 PUSH1 0x0 PUSH2 0x671 DUP4 PUSH2 0x1586 JUMP JUMPDEST SWAP2 SWAP1 POP SSTORE POP PUSH2 0x680 DUP4 DUP3 PUSH2 0x9BF JUMP JUMPDEST SWAP1 POP JUMPDEST SWAP2 SWAP1 POP JUMP JUMPDEST PUSH1 0x0 PUSH1 0x0 DUP1 MLOAD PUSH1 0x20 PUSH2 0x1637 DUP4 CODECOPY DUP2 MLOAD SWAP2 MSTORE PUSH1 0x1 PUSH1 0x1 PUSH1 0xA0 SHL SUB DUP4 AND PUSH2 0x6C3 JUMPI PUSH1 0x40 MLOAD PUSH4 0x22718AD9 PUSH1 0xE2 SHL DUP2 MSTORE PUSH1 0x0 PUSH1 0x4 DUP3 ADD MSTORE PUSH1 0x24 ADD PUSH2 0x3C7 JUMP JUMPDEST PUSH1 0x1 PUSH1 0x1 PUSH1 0xA0 SHL SUB SWAP1 SWAP3 AND PUSH1 0x0 SWAP1 DUP2 MSTORE PUSH1 0x3 SWAP1 SWAP3 ADD PUSH1 0x20 MSTORE POP PUSH1 0x40 SWAP1 KECCAK256 SLOAD SWAP1 JUMP JUMPDEST PUSH32 0x80BB2B638CC20BC4D0A60D66940F3AB4A00C1D7B313497CA82FB0B4AB0079301 DUP1 SLOAD PUSH1 0x60 SWAP2 PUSH1 0x0 DUP1 MLOAD PUSH1 0x20 PUSH2 0x1637 DUP4 CODECOPY DUP2 MLOAD SWAP2 MSTORE SWAP2 PUSH2 0x2F9 SWAP1 PUSH2 0x1446 JUMP JUMPDEST PUSH2 0x39D CALLER DUP4 DUP4 PUSH2 0x9D9 JUMP JUMPDEST PUSH2 0x739 DUP5 DUP5 DUP5 PUSH2 0x3A1 JUMP JUMPDEST PUSH2 0x42B CALLER DUP6 DUP6 DUP6 DUP6 PUSH2 0xA8A JUMP JUMPDEST PUSH1 0x60 PUSH2 0x751 DUP3 PUSH2 0x7FB JUMP JUMPDEST POP PUSH1 0x0 PUSH2 0x75C PUSH2 0xBB5 JUMP JUMPDEST SWAP1 POP PUSH1 0x0 DUP2 MLOAD GT PUSH2 0x77C JUMPI PUSH1 0x40 MLOAD DUP1 PUSH1 0x20 ADD PUSH1 0x40 MSTORE DUP1 PUSH1 0x0 DUP2 MSTORE POP PUSH2 0x7A7 JUMP JUMPDEST DUP1 PUSH2 0x786 DUP5 PUSH2 0xC47 JUMP JUMPDEST PUSH1 0x40 MLOAD PUSH1 0x20 ADD PUSH2 0x797 SWAP3 SWAP2 SWAP1 PUSH2 0x15AD JUMP JUMPDEST PUSH1 0x40 MLOAD PUSH1 0x20 DUP2 DUP4 SUB SUB DUP2 MSTORE SWAP1 PUSH1 0x40 MSTORE JUMPDEST SWAP4 SWAP3 POP POP POP JUMP JUMPDEST PUSH1 0x1 PUSH1 0x1 PUSH1 0xA0 SHL SUB SWAP2 DUP3 AND PUSH1 0x0 SWAP1 DUP2 MSTORE PUSH32 0x80BB2B638CC20BC4D0A60D66940F3AB4A00C1D7B313497CA82FB0B4AB0079305 PUSH1 0x20 SWAP1 DUP2 MSTORE PUSH1 0x40 DUP1 DUP4 KECCAK256 SWAP4 SWAP1 SWAP5 AND DUP3 MSTORE SWAP2 SWAP1 SWAP2 MSTORE KECCAK256 SLOAD PUSH1 0xFF AND SWAP1 JUMP JUMPDEST PUSH1 0x0 DUP1 PUSH2 0x807 DUP4 PUSH2 0xCDA JUMP JUMPDEST SWAP1 POP PUSH1 0x1 PUSH1 0x1 PUSH1 0xA0 SHL SUB DUP2 AND PUSH2 0x680 JUMPI PUSH1 0x40 MLOAD PUSH4 0x7E273289 PUSH1 0xE0 SHL DUP2 MSTORE PUSH1 0x4 DUP2 ADD DUP5 SWAP1 MSTORE PUSH1 0x24 ADD PUSH2 0x3C7 JUMP JUMPDEST PUSH1 0x0 SWAP1 DUP2 MSTORE PUSH32 0x80BB2B638CC20BC4D0A60D66940F3AB4A00C1D7B313497CA82FB0B4AB0079304 PUSH1 0x20 MSTORE PUSH1 0x40 SWAP1 KECCAK256 SLOAD PUSH1 0x1 PUSH1 0x1 PUSH1 0xA0 SHL SUB AND SWAP1 JUMP JUMPDEST PUSH2 0x44C DUP4 DUP4 DUP4 PUSH1 0x1 PUSH2 0xD14 JUMP JUMPDEST PUSH1 0x0 PUSH1 0x0 DUP1 MLOAD PUSH1 0x20 PUSH2 0x1637 DUP4 CODECOPY DUP2 MLOAD SWAP2 MSTORE DUP2 PUSH2 0x895 DUP6 PUSH2 0xCDA JUMP JUMPDEST SWAP1 POP PUSH1 0x1 PUSH1 0x1 PUSH1 0xA0 SHL SUB DUP5 AND ISZERO PUSH2 0x8B1 JUMPI PUSH2 0x8B1 DUP2 DUP6 DUP8 PUSH2 0xE2A JUMP JUMPDEST PUSH1 0x1 PUSH1 0x1 PUSH1 0xA0 SHL SUB DUP2 AND ISZERO PUSH2 0x8F1 JUMPI PUSH2 0x8CE PUSH1 0x0 DUP7 PUSH1 0x0 DUP1 PUSH2 0xD14 JUMP JUMPDEST PUSH1 0x1 PUSH1 0x1 PUSH1 0xA0 SHL SUB DUP2 AND PUSH1 0x0 SWAP1 DUP2 MSTORE PUSH1 0x3 DUP4 ADD PUSH1 0x20 MSTORE PUSH1 0x40 SWAP1 KECCAK256 DUP1 SLOAD PUSH1 0x0 NOT ADD SWAP1 SSTORE JUMPDEST PUSH1 0x1 PUSH1 0x1 PUSH1 0xA0 SHL SUB DUP7 AND ISZERO PUSH2 0x922 JUMPI PUSH1 0x1 PUSH1 0x1 PUSH1 0xA0 SHL SUB DUP7 AND PUSH1 0x0 SWAP1 DUP2 MSTORE PUSH1 0x3 DUP4 ADD PUSH1 0x20 MSTORE PUSH1 0x40 SWAP1 KECCAK256 DUP1 SLOAD PUSH1 0x1 ADD SWAP1 SSTORE JUMPDEST PUSH1 0x0 DUP6 DUP2 MSTORE PUSH1 0x2 DUP4 ADD PUSH1 0x20 MSTORE PUSH1 0x40 DUP1 DUP3 KECCAK256 DUP1 SLOAD PUSH1 0x1 PUSH1 0x1 PUSH1 0xA0 SHL SUB NOT AND PUSH1 0x1 PUSH1 0x1 PUSH1 0xA0 SHL SUB DUP11 DUP2 AND SWAP2 DUP3 OR SWAP1 SWAP3 SSTORE SWAP2 MLOAD DUP9 SWAP4 SWAP2 DUP6 AND SWAP2 PUSH32 0xDDF252AD1BE2C89B69C2B068FC378DAA952BA7F163C4A11628F55A4DF523B3EF SWAP2 LOG4 SWAP6 SWAP5 POP POP POP POP POP JUMP JUMPDEST PUSH1 0x0 DUP1 PUSH32 0xF0C57E16840DF040F15088DC2F81FE391C3923BEC73E23A9662EFC9C229C6A00 PUSH2 0x2D3 JUMP JUMPDEST PUSH2 0x9B5 PUSH2 0xE8E JUMP JUMPDEST PUSH2 0x39D DUP3 DUP3 PUSH2 0xEB5 JUMP JUMPDEST PUSH2 0x39D DUP3 DUP3 PUSH1 0x40 MLOAD DUP1 PUSH1 0x20 ADD PUSH1 0x40 MSTORE DUP1 PUSH1 0x0 DUP2 MSTORE POP PUSH2 0xEE6 JUMP JUMPDEST PUSH1 0x0 DUP1 MLOAD PUSH1 0x20 PUSH2 0x1637 DUP4 CODECOPY DUP2 MLOAD SWAP2 MSTORE PUSH1 0x1 PUSH1 0x1 PUSH1 0xA0 SHL SUB DUP4 AND PUSH2 0xA1A JUMPI PUSH1 0x40 MLOAD PUSH4 0xB611743 PUSH1 0xE3 SHL DUP2 MSTORE PUSH1 0x1 PUSH1 0x1 PUSH1 0xA0 SHL SUB DUP5 AND PUSH1 0x4 DUP3 ADD MSTORE PUSH1 0x24 ADD PUSH2 0x3C7 JUMP JUMPDEST PUSH1 0x1 PUSH1 0x1 PUSH1 0xA0 SHL SUB DUP5 DUP2 AND PUSH1 0x0 DUP2 DUP2 MSTORE PUSH1 0x5 DUP5 ADD PUSH1 0x20 SWAP1 DUP2 MSTORE PUSH1 0x40 DUP1 DUP4 KECCAK256 SWAP5 DUP9 AND DUP1 DUP5 MSTORE SWAP5 DUP3 MSTORE SWAP2 DUP3 SWAP1 KECCAK256 DUP1 SLOAD PUSH1 0xFF NOT AND DUP8 ISZERO ISZERO SWAP1 DUP2 OR SWAP1 SWAP2 SSTORE SWAP2 MLOAD SWAP2 DUP3 MSTORE PUSH32 0x17307EAB39AB6107E8899845AD3D59BD9653F200F220920489CA2B5937696C31 SWAP2 ADD PUSH1 0x40 MLOAD DUP1 SWAP2 SUB SWAP1 LOG3 POP POP POP POP JUMP JUMPDEST PUSH1 0x1 PUSH1 0x1 PUSH1 0xA0 SHL SUB DUP4 AND EXTCODESIZE ISZERO PUSH2 0xBAE JUMPI PUSH1 0x40 MLOAD PUSH4 0xA85BD01 PUSH1 0xE1 SHL DUP2 MSTORE PUSH1 0x1 PUSH1 0x1 PUSH1 0xA0 SHL SUB DUP5 AND SWAP1 PUSH4 0x150B7A02 SWAP1 PUSH2 0xACC SWAP1 DUP9 SWAP1 DUP9 SWAP1 DUP8 SWAP1 DUP8 SWAP1 PUSH1 0x4 ADD PUSH2 0x15DC JUMP JUMPDEST PUSH1 0x20 PUSH1 0x40 MLOAD DUP1 DUP4 SUB DUP2 PUSH1 0x0 DUP8 GAS CALL SWAP3 POP POP POP DUP1 ISZERO PUSH2 0xB07 JUMPI POP PUSH1 0x40 DUP1 MLOAD PUSH1 0x1F RETURNDATASIZE SWAP1 DUP2 ADD PUSH1 0x1F NOT AND DUP3 ADD SWAP1 SWAP3 MSTORE PUSH2 0xB04 SWAP2 DUP2 ADD SWAP1 PUSH2 0x1619 JUMP JUMPDEST PUSH1 0x1 JUMPDEST PUSH2 0xB70 JUMPI RETURNDATASIZE DUP1 DUP1 ISZERO PUSH2 0xB35 JUMPI PUSH1 0x40 MLOAD SWAP2 POP PUSH1 0x1F NOT PUSH1 0x3F RETURNDATASIZE ADD AND DUP3 ADD PUSH1 0x40 MSTORE RETURNDATASIZE DUP3 MSTORE RETURNDATASIZE PUSH1 0x0 PUSH1 0x20 DUP5 ADD RETURNDATACOPY PUSH2 0xB3A JUMP JUMPDEST PUSH1 0x60 SWAP2 POP JUMPDEST POP DUP1 MLOAD PUSH1 0x0 SUB PUSH2 0xB68 JUMPI PUSH1 0x40 MLOAD PUSH4 0x32505749 PUSH1 0xE1 SHL DUP2 MSTORE PUSH1 0x1 PUSH1 0x1 PUSH1 0xA0 SHL SUB DUP6 AND PUSH1 0x4 DUP3 ADD MSTORE PUSH1 0x24 ADD PUSH2 0x3C7 JUMP JUMPDEST DUP1 MLOAD DUP2 PUSH1 0x20 ADD REVERT JUMPDEST PUSH1 0x1 PUSH1 0x1 PUSH1 0xE0 SHL SUB NOT DUP2 AND PUSH4 0xA85BD01 PUSH1 0xE1 SHL EQ PUSH2 0xBAC JUMPI PUSH1 0x40 MLOAD PUSH4 0x32505749 PUSH1 0xE1 SHL DUP2 MSTORE PUSH1 0x1 PUSH1 0x1 PUSH1 0xA0 SHL SUB DUP6 AND PUSH1 0x4 DUP3 ADD MSTORE PUSH1 0x24 ADD PUSH2 0x3C7 JUMP JUMPDEST POP JUMPDEST POP POP POP POP POP JUMP JUMPDEST PUSH1 0x60 PUSH1 0x0 DUP1 SLOAD PUSH2 0xBC4 SWAP1 PUSH2 0x1446 JUMP JUMPDEST DUP1 PUSH1 0x1F ADD PUSH1 0x20 DUP1 SWAP2 DIV MUL PUSH1 0x20 ADD PUSH1 0x40 MLOAD SWAP1 DUP2 ADD PUSH1 0x40 MSTORE DUP1 SWAP3 SWAP2 SWAP1 DUP2 DUP2 MSTORE PUSH1 0x20 ADD DUP3 DUP1 SLOAD PUSH2 0xBF0 SWAP1 PUSH2 0x1446 JUMP JUMPDEST DUP1 ISZERO PUSH2 0xC3D JUMPI DUP1 PUSH1 0x1F LT PUSH2 0xC12 JUMPI PUSH2 0x100 DUP1 DUP4 SLOAD DIV MUL DUP4 MSTORE SWAP2 PUSH1 0x20 ADD SWAP2 PUSH2 0xC3D JUMP JUMPDEST DUP3 ADD SWAP2 SWAP1 PUSH1 0x0 MSTORE PUSH1 0x20 PUSH1 0x0 KECCAK256 SWAP1 JUMPDEST DUP2 SLOAD DUP2 MSTORE SWAP1 PUSH1 0x1 ADD SWAP1 PUSH1 0x20 ADD DUP1 DUP4 GT PUSH2 0xC20 JUMPI DUP3 SWAP1 SUB PUSH1 0x1F AND DUP3 ADD SWAP2 JUMPDEST POP POP POP POP POP SWAP1 POP SWAP1 JUMP JUMPDEST PUSH1 0x60 PUSH1 0x0 PUSH2 0xC54 DUP4 PUSH2 0xEFE JUMP JUMPDEST PUSH1 0x1 ADD SWAP1 POP PUSH1 0x0 DUP2 PUSH8 0xFFFFFFFFFFFFFFFF DUP2 GT ISZERO PUSH2 0xC74 JUMPI PUSH2 0xC74 PUSH2 0x1206 JUMP JUMPDEST PUSH1 0x40 MLOAD SWAP1 DUP1 DUP3 MSTORE DUP1 PUSH1 0x1F ADD PUSH1 0x1F NOT AND PUSH1 0x20 ADD DUP3 ADD PUSH1 0x40 MSTORE DUP1 ISZERO PUSH2 0xC9E JUMPI PUSH1 0x20 DUP3 ADD DUP2 DUP1 CALLDATASIZE DUP4 CALLDATACOPY ADD SWAP1 POP JUMPDEST POP SWAP1 POP DUP2 DUP2 ADD PUSH1 0x20 ADD JUMPDEST PUSH1 0x0 NOT ADD PUSH16 0x181899199A1A9B1B9C1CB0B131B232B3 PUSH1 0x81 SHL PUSH1 0xA DUP7 MOD BYTE DUP2 MSTORE8 PUSH1 0xA DUP6 DIV SWAP5 POP DUP5 PUSH2 0xCA8 JUMPI POP SWAP4 SWAP3 POP POP POP JUMP JUMPDEST PUSH1 0x0 SWAP1 DUP2 MSTORE PUSH32 0x80BB2B638CC20BC4D0A60D66940F3AB4A00C1D7B313497CA82FB0B4AB0079302 PUSH1 0x20 MSTORE PUSH1 0x40 SWAP1 KECCAK256 SLOAD PUSH1 0x1 PUSH1 0x1 PUSH1 0xA0 SHL SUB AND SWAP1 JUMP JUMPDEST PUSH1 0x0 DUP1 MLOAD PUSH1 0x20 PUSH2 0x1637 DUP4 CODECOPY DUP2 MLOAD SWAP2 MSTORE DUP2 DUP1 PUSH2 0xD37 JUMPI POP PUSH1 0x1 PUSH1 0x1 PUSH1 0xA0 SHL SUB DUP4 AND ISZERO ISZERO JUMPDEST ISZERO PUSH2 0xDF9 JUMPI PUSH1 0x0 PUSH2 0xD47 DUP6 PUSH2 0x7FB JUMP JUMPDEST SWAP1 POP PUSH1 0x1 PUSH1 0x1 PUSH1 0xA0 SHL SUB DUP5 AND ISZERO DUP1 ISZERO SWAP1 PUSH2 0xD73 JUMPI POP DUP4 PUSH1 0x1 PUSH1 0x1 PUSH1 0xA0 SHL SUB AND DUP2 PUSH1 0x1 PUSH1 0x1 PUSH1 0xA0 SHL SUB AND EQ ISZERO JUMPDEST DUP1 ISZERO PUSH2 0xD86 JUMPI POP PUSH2 0xD84 DUP2 DUP6 PUSH2 0x7AE JUMP JUMPDEST ISZERO JUMPDEST ISZERO PUSH2 0xDAF JUMPI PUSH1 0x40 MLOAD PUSH4 0xA9FBF51F PUSH1 0xE0 SHL DUP2 MSTORE PUSH1 0x1 PUSH1 0x1 PUSH1 0xA0 SHL SUB DUP6 AND PUSH1 0x4 DUP3 ADD MSTORE PUSH1 0x24 ADD PUSH2 0x3C7 JUMP JUMPDEST DUP3 ISZERO PUSH2 0xDF7 JUMPI DUP5 DUP7 PUSH1 0x1 PUSH1 0x1 PUSH1 0xA0 SHL SUB AND DUP3 PUSH1 0x1 PUSH1 0x1 PUSH1 0xA0 SHL SUB AND PUSH32 0x8C5BE1E5EBEC7D5BD14F71427D1E84F3DD0314C0F7B2291E5B200AC8C7C3B925 PUSH1 0x40 MLOAD PUSH1 0x40 MLOAD DUP1 SWAP2 SUB SWAP1 LOG4 JUMPDEST POP JUMPDEST PUSH1 0x0 SWAP4 DUP5 MSTORE PUSH1 0x4 ADD PUSH1 0x20 MSTORE POP POP PUSH1 0x40 SWAP1 KECCAK256 DUP1 SLOAD PUSH1 0x1 PUSH1 0x1 PUSH1 0xA0 SHL SUB NOT AND PUSH1 0x1 PUSH1 0x1 PUSH1 0xA0 SHL SUB SWAP3 SWAP1 SWAP3 AND SWAP2 SWAP1 SWAP2 OR SWAP1 SSTORE JUMP JUMPDEST PUSH2 0xE35 DUP4 DUP4 DUP4 PUSH2 0xFD6 JUMP JUMPDEST PUSH2 0x44C JUMPI PUSH1 0x1 PUSH1 0x1 PUSH1 0xA0 SHL SUB DUP4 AND PUSH2 0xE63 JUMPI PUSH1 0x40 MLOAD PUSH4 0x7E273289 PUSH1 0xE0 SHL DUP2 MSTORE PUSH1 0x4 DUP2 ADD DUP3 SWAP1 MSTORE PUSH1 0x24 ADD PUSH2 0x3C7 JUMP JUMPDEST PUSH1 0x40 MLOAD PUSH4 0x177E802F PUSH1 0xE0 SHL DUP2 MSTORE PUSH1 0x1 PUSH1 0x1 PUSH1 0xA0 SHL SUB DUP4 AND PUSH1 0x4 DUP3 ADD MSTORE PUSH1 0x24 DUP2 ADD DUP3 SWAP1 MSTORE PUSH1 0x44 ADD PUSH2 0x3C7 JUMP JUMPDEST PUSH2 0xE96 PUSH2 0x103C JUMP JUMPDEST PUSH2 0xEB3 JUMPI PUSH1 0x40 MLOAD PUSH4 0x1AFCD79F PUSH1 0xE3 SHL DUP2 MSTORE PUSH1 0x4 ADD PUSH1 0x40 MLOAD DUP1 SWAP2 SUB SWAP1 REVERT JUMPDEST JUMP JUMPDEST PUSH2 0xEBD PUSH2 0xE8E JUMP JUMPDEST PUSH1 0x0 DUP1 MLOAD PUSH1 0x20 PUSH2 0x1637 DUP4 CODECOPY DUP2 MLOAD SWAP2 MSTORE DUP1 PUSH2 0xED7 DUP5 DUP3 PUSH2 0x14C7 JUMP JUMPDEST POP PUSH1 0x1 DUP2 ADD PUSH2 0x42B DUP4 DUP3 PUSH2 0x14C7 JUMP JUMPDEST PUSH2 0xEF0 DUP4 DUP4 PUSH2 0x1056 JUMP JUMPDEST PUSH2 0x44C CALLER PUSH1 0x0 DUP6 DUP6 DUP6 PUSH2 0xA8A JUMP JUMPDEST PUSH1 0x0 DUP1 PUSH19 0x184F03E93FF9F4DAA797ED6E38ED64BF6A1F01 PUSH1 0x40 SHL DUP4 LT PUSH2 0xF3D JUMPI PUSH19 0x184F03E93FF9F4DAA797ED6E38ED64BF6A1F01 PUSH1 0x40 SHL DUP4 DIV SWAP3 POP PUSH1 0x40 ADD JUMPDEST PUSH14 0x4EE2D6D415B85ACEF8100000000 DUP4 LT PUSH2 0xF69 JUMPI PUSH14 0x4EE2D6D415B85ACEF8100000000 DUP4 DIV SWAP3 POP PUSH1 0x20 ADD JUMPDEST PUSH7 0x2386F26FC10000 DUP4 LT PUSH2 0xF87 JUMPI PUSH7 0x2386F26FC10000 DUP4 DIV SWAP3 POP PUSH1 0x10 ADD JUMPDEST PUSH4 0x5F5E100 DUP4 LT PUSH2 0xF9F JUMPI PUSH4 0x5F5E100 DUP4 DIV SWAP3 POP PUSH1 0x8 ADD JUMPDEST PUSH2 0x2710 DUP4 LT PUSH2 0xFB3 JUMPI PUSH2 0x2710 DUP4 DIV SWAP3 POP PUSH1 0x4 ADD JUMPDEST PUSH1 0x64 DUP4 LT PUSH2 0xFC5 JUMPI PUSH1 0x64 DUP4 DIV SWAP3 POP PUSH1 0x2 ADD JUMPDEST PUSH1 0xA DUP4 LT PUSH2 0x680 JUMPI PUSH1 0x1 ADD SWAP3 SWAP2 POP POP JUMP JUMPDEST PUSH1 0x0 PUSH1 0x1 PUSH1 0x1 PUSH1 0xA0 SHL SUB DUP4 AND ISZERO DUP1 ISZERO SWAP1 PUSH2 0x1034 JUMPI POP DUP3 PUSH1 0x1 PUSH1 0x1 PUSH1 0xA0 SHL SUB AND DUP5 PUSH1 0x1 PUSH1 0x1 PUSH1 0xA0 SHL SUB AND EQ DUP1 PUSH2 0x1010 JUMPI POP PUSH2 0x1010 DUP5 DUP5 PUSH2 0x7AE JUMP JUMPDEST DUP1 PUSH2 0x1034 JUMPI POP DUP3 PUSH1 0x1 PUSH1 0x1 PUSH1 0xA0 SHL SUB AND PUSH2 0x1029 DUP4 PUSH2 0x833 JUMP JUMPDEST PUSH1 0x1 PUSH1 0x1 PUSH1 0xA0 SHL SUB AND EQ JUMPDEST SWAP5 SWAP4 POP POP POP POP JUMP JUMPDEST PUSH1 0x0 PUSH2 0x1046 PUSH2 0x984 JUMP JUMPDEST SLOAD PUSH1 0x1 PUSH1 0x40 SHL SWAP1 DIV PUSH1 0xFF AND SWAP2 SWAP1 POP JUMP JUMPDEST PUSH1 0x1 PUSH1 0x1 PUSH1 0xA0 SHL SUB DUP3 AND PUSH2 0x1080 JUMPI PUSH1 0x40 MLOAD PUSH4 0x32505749 PUSH1 0xE1 SHL DUP2 MSTORE PUSH1 0x0 PUSH1 0x4 DUP3 ADD MSTORE PUSH1 0x24 ADD PUSH2 0x3C7 JUMP JUMPDEST PUSH1 0x0 PUSH2 0x108E DUP4 DUP4 PUSH1 0x0 PUSH2 0x87A JUMP JUMPDEST SWAP1 POP PUSH1 0x1 PUSH1 0x1 PUSH1 0xA0 SHL SUB DUP2 AND ISZERO PUSH2 0x44C JUMPI PUSH1 0x40 MLOAD PUSH4 0x39E35637 PUSH1 0xE1 SHL DUP2 MSTORE PUSH1 0x0 PUSH1 0x4 DUP3 ADD MSTORE PUSH1 0x24 ADD PUSH2 0x3C7 JUMP JUMPDEST PUSH1 0x1 PUSH1 0x1 PUSH1 0xE0 SHL SUB NOT DUP2 AND DUP2 EQ PUSH2 0x10D1 JUMPI PUSH1 0x0 DUP1 REVERT JUMPDEST POP JUMP JUMPDEST PUSH1 0x0 PUSH1 0x20 DUP3 DUP5 SUB SLT ISZERO PUSH2 0x10E6 JUMPI PUSH1 0x0 DUP1 REVERT JUMPDEST DUP2 CALLDATALOAD PUSH2 0x7A7 DUP2 PUSH2 0x10BB JUMP JUMPDEST PUSH1 0x0 JUMPDEST DUP4 DUP2 LT ISZERO PUSH2 0x110C JUMPI DUP2 DUP2 ADD MLOAD DUP4 DUP3 ADD MSTORE PUSH1 0x20 ADD PUSH2 0x10F4 JUMP JUMPDEST POP POP PUSH1 0x0 SWAP2 ADD MSTORE JUMP JUMPDEST PUSH1 0x0 DUP2 MLOAD DUP1 DUP5 MSTORE PUSH2 0x112D DUP2 PUSH1 0x20 DUP7 ADD PUSH1 0x20 DUP7 ADD PUSH2 0x10F1 JUMP JUMPDEST PUSH1 0x1F ADD PUSH1 0x1F NOT AND SWAP3 SWAP1 SWAP3 ADD PUSH1 0x20 ADD SWAP3 SWAP2 POP POP JUMP JUMPDEST PUSH1 0x20 DUP2 MSTORE PUSH1 0x0 PUSH2 0x7A7 PUSH1 0x20 DUP4 ADD DUP5 PUSH2 0x1115 JUMP JUMPDEST PUSH1 0x0 PUSH1 0x20 DUP3 DUP5 SUB SLT ISZERO PUSH2 0x1166 JUMPI PUSH1 0x0 DUP1 REVERT JUMPDEST POP CALLDATALOAD SWAP2 SWAP1 POP JUMP JUMPDEST DUP1 CALLDATALOAD PUSH1 0x1 PUSH1 0x1 PUSH1 0xA0 SHL SUB DUP2 AND DUP2 EQ PUSH2 0x683 JUMPI PUSH1 0x0 DUP1 REVERT JUMPDEST PUSH1 0x0 DUP1 PUSH1 0x40 DUP4 DUP6 SUB SLT ISZERO PUSH2 0x1197 JUMPI PUSH1 0x0 DUP1 REVERT JUMPDEST PUSH2 0x11A0 DUP4 PUSH2 0x116D JUMP JUMPDEST SWAP5 PUSH1 0x20 SWAP4 SWAP1 SWAP4 ADD CALLDATALOAD SWAP4 POP POP POP JUMP JUMPDEST PUSH1 0x0 DUP1 PUSH1 0x0 PUSH1 0x60 DUP5 DUP7 SUB SLT ISZERO PUSH2 0x11C3 JUMPI PUSH1 0x0 DUP1 REVERT JUMPDEST PUSH2 0x11CC DUP5 PUSH2 0x116D JUMP JUMPDEST SWAP3 POP PUSH2 0x11DA PUSH1 0x20 DUP6 ADD PUSH2 0x116D JUMP JUMPDEST SWAP3 SWAP6 SWAP3 SWAP5 POP POP POP PUSH1 0x40 SWAP2 SWAP1 SWAP2 ADD CALLDATALOAD SWAP1 JUMP JUMPDEST PUSH1 0x0 PUSH1 0x20 DUP3 DUP5 SUB SLT ISZERO PUSH2 0x11FD JUMPI PUSH1 0x0 DUP1 REVERT JUMPDEST PUSH2 0x7A7 DUP3 PUSH2 0x116D JUMP JUMPDEST PUSH4 0x4E487B71 PUSH1 0xE0 SHL PUSH1 0x0 MSTORE PUSH1 0x41 PUSH1 0x4 MSTORE PUSH1 0x24 PUSH1 0x0 REVERT JUMPDEST PUSH1 0x0 DUP1 PUSH8 0xFFFFFFFFFFFFFFFF DUP5 GT ISZERO PUSH2 0x1237 JUMPI PUSH2 0x1237 PUSH2 0x1206 JUMP JUMPDEST POP PUSH1 0x40 MLOAD PUSH1 0x1F NOT PUSH1 0x1F DUP6 ADD DUP2 AND PUSH1 0x3F ADD AND DUP2 ADD DUP2 DUP2 LT PUSH8 0xFFFFFFFFFFFFFFFF DUP3 GT OR ISZERO PUSH2 0x1266 JUMPI PUSH2 0x1266 PUSH2 0x1206 JUMP JUMPDEST PUSH1 0x40 MSTORE DUP4 DUP2 MSTORE SWAP1 POP DUP1 DUP3 DUP5 ADD DUP6 LT ISZERO PUSH2 0x127E JUMPI PUSH1 0x0 DUP1 REVERT JUMPDEST DUP4 DUP4 PUSH1 0x20 DUP4 ADD CALLDATACOPY PUSH1 0x0 PUSH1 0x20 DUP6 DUP4 ADD ADD MSTORE POP SWAP4 SWAP3 POP POP POP JUMP JUMPDEST PUSH1 0x0 DUP3 PUSH1 0x1F DUP4 ADD SLT PUSH2 0x12A7 JUMPI PUSH1 0x0 DUP1 REVERT JUMPDEST PUSH2 0x7A7 DUP4 DUP4 CALLDATALOAD PUSH1 0x20 DUP6 ADD PUSH2 0x121C JUMP JUMPDEST PUSH1 0x0 DUP1 PUSH1 0x0 DUP1 PUSH1 0x80 DUP6 DUP8 SUB SLT ISZERO PUSH2 0x12CC JUMPI PUSH1 0x0 DUP1 REVERT JUMPDEST DUP5 CALLDATALOAD PUSH8 0xFFFFFFFFFFFFFFFF DUP2 GT ISZERO PUSH2 0x12E3 JUMPI PUSH1 0x0 DUP1 REVERT JUMPDEST PUSH2 0x12EF DUP8 DUP3 DUP9 ADD PUSH2 0x1296 JUMP JUMPDEST SWAP5 POP POP PUSH1 0x20 DUP6 ADD CALLDATALOAD PUSH8 0xFFFFFFFFFFFFFFFF DUP2 GT ISZERO PUSH2 0x130C JUMPI PUSH1 0x0 DUP1 REVERT JUMPDEST PUSH2 0x1318 DUP8 DUP3 DUP9 ADD PUSH2 0x1296 JUMP JUMPDEST SWAP4 POP POP PUSH1 0x40 DUP6 ADD CALLDATALOAD PUSH8 0xFFFFFFFFFFFFFFFF DUP2 GT ISZERO PUSH2 0x1335 JUMPI PUSH1 0x0 DUP1 REVERT JUMPDEST PUSH2 0x1341 DUP8 DUP3 DUP9 ADD PUSH2 0x1296 JUMP JUMPDEST SWAP3 POP POP PUSH2 0x1350 PUSH1 0x60 DUP7 ADD PUSH2 0x116D JUMP JUMPDEST SWAP1 POP SWAP3 SWAP6 SWAP2 SWAP5 POP SWAP3 POP JUMP JUMPDEST PUSH1 0x0 DUP1 PUSH1 0x40 DUP4 DUP6 SUB SLT ISZERO PUSH2 0x136E JUMPI PUSH1 0x0 DUP1 REVERT JUMPDEST PUSH2 0x1377 DUP4 PUSH2 0x116D JUMP JUMPDEST SWAP2 POP PUSH1 0x20 DUP4 ADD CALLDATALOAD DUP1 ISZERO ISZERO DUP2 EQ PUSH2 0x138C JUMPI PUSH1 0x0 DUP1 REVERT JUMPDEST DUP1 SWAP2 POP POP SWAP3 POP SWAP3 SWAP1 POP JUMP JUMPDEST PUSH1 0x0 DUP1 PUSH1 0x0 DUP1 PUSH1 0x80 DUP6 DUP8 SUB SLT ISZERO PUSH2 0x13AD JUMPI PUSH1 0x0 DUP1 REVERT JUMPDEST PUSH2 0x13B6 DUP6 PUSH2 0x116D JUMP JUMPDEST SWAP4 POP PUSH2 0x13C4 PUSH1 0x20 DUP7 ADD PUSH2 0x116D JUMP JUMPDEST SWAP3 POP PUSH1 0x40 DUP6 ADD CALLDATALOAD SWAP2 POP PUSH1 0x60 DUP6 ADD CALLDATALOAD PUSH8 0xFFFFFFFFFFFFFFFF DUP2 GT ISZERO PUSH2 0x13E7 JUMPI PUSH1 0x0 DUP1 REVERT JUMPDEST DUP6 ADD PUSH1 0x1F DUP2 ADD DUP8 SGT PUSH2 0x13F8 JUMPI PUSH1 0x0 DUP1 REVERT JUMPDEST PUSH2 0x1407 DUP8 DUP3 CALLDATALOAD PUSH1 0x20 DUP5 ADD PUSH2 0x121C JUMP JUMPDEST SWAP2 POP POP SWAP3 SWAP6 SWAP2 SWAP5 POP SWAP3 POP JUMP JUMPDEST PUSH1 0x0 DUP1 PUSH1 0x40 DUP4 DUP6 SUB SLT ISZERO PUSH2 0x1426 JUMPI PUSH1 0x0 DUP1 REVERT JUMPDEST PUSH2 0x142F DUP4 PUSH2 0x116D JUMP JUMPDEST SWAP2 POP PUSH2 0x143D PUSH1 0x20 DUP5 ADD PUSH2 0x116D JUMP JUMPDEST SWAP1 POP SWAP3 POP SWAP3 SWAP1 POP JUMP JUMPDEST PUSH1 0x1 DUP2 DUP2 SHR SWAP1 DUP3 AND DUP1 PUSH2 0x145A JUMPI PUSH1 0x7F DUP3 AND SWAP2 POP JUMPDEST PUSH1 0x20 DUP3 LT DUP2 SUB PUSH2 0x147A JUMPI PUSH4 0x4E487B71 PUSH1 0xE0 SHL PUSH1 0x0 MSTORE PUSH1 0x22 PUSH1 0x4 MSTORE PUSH1 0x24 PUSH1 0x0 REVERT JUMPDEST POP SWAP2 SWAP1 POP JUMP JUMPDEST PUSH1 0x1F DUP3 GT ISZERO PUSH2 0x44C JUMPI DUP1 PUSH1 0x0 MSTORE PUSH1 0x20 PUSH1 0x0 KECCAK256 PUSH1 0x1F DUP5 ADD PUSH1 0x5 SHR DUP2 ADD PUSH1 0x20 DUP6 LT ISZERO PUSH2 0x14A7 JUMPI POP DUP1 JUMPDEST PUSH1 0x1F DUP5 ADD PUSH1 0x5 SHR DUP3 ADD SWAP2 POP JUMPDEST DUP2 DUP2 LT ISZERO PUSH2 0xBAE JUMPI PUSH1 0x0 DUP2 SSTORE PUSH1 0x1 ADD PUSH2 0x14B3 JUMP JUMPDEST DUP2 MLOAD PUSH8 0xFFFFFFFFFFFFFFFF DUP2 GT ISZERO PUSH2 0x14E1 JUMPI PUSH2 0x14E1 PUSH2 0x1206 JUMP JUMPDEST PUSH2 0x14F5 DUP2 PUSH2 0x14EF DUP5 SLOAD PUSH2 0x1446 JUMP JUMPDEST DUP5 PUSH2 0x1480 JUMP JUMPDEST PUSH1 0x20 PUSH1 0x1F DUP3 GT PUSH1 0x1 DUP2 EQ PUSH2 0x1529 JUMPI PUSH1 0x0 DUP4 ISZERO PUSH2 0x1511 JUMPI POP DUP5 DUP3 ADD MLOAD JUMPDEST PUSH1 0x0 NOT PUSH1 0x3 DUP6 SWAP1 SHL SHR NOT AND PUSH1 0x1 DUP5 SWAP1 SHL OR DUP5 SSTORE PUSH2 0xBAE JUMP JUMPDEST PUSH1 0x0 DUP5 DUP2 MSTORE PUSH1 0x20 DUP2 KECCAK256 PUSH1 0x1F NOT DUP6 AND SWAP2 JUMPDEST DUP3 DUP2 LT ISZERO PUSH2 0x1559 JUMPI DUP8 DUP6 ADD MLOAD DUP3 SSTORE PUSH1 0x20 SWAP5 DUP6 ADD SWAP5 PUSH1 0x1 SWAP1 SWAP3 ADD SWAP2 ADD PUSH2 0x1539 JUMP JUMPDEST POP DUP5 DUP3 LT ISZERO PUSH2 0x1577 JUMPI DUP7 DUP5 ADD MLOAD PUSH1 0x0 NOT PUSH1 0x3 DUP8 SWAP1 SHL PUSH1 0xF8 AND SHR NOT AND DUP2 SSTORE JUMPDEST POP POP POP POP PUSH1 0x1 SWAP1 DUP2 SHL ADD SWAP1 SSTORE POP JUMP JUMPDEST PUSH1 0x0 PUSH1 0x1 DUP3 ADD PUSH2 0x15A6 JUMPI PUSH4 0x4E487B71 PUSH1 0xE0 SHL PUSH1 0x0 MSTORE PUSH1 0x11 PUSH1 0x4 MSTORE PUSH1 0x24 PUSH1 0x0 REVERT JUMPDEST POP PUSH1 0x1 ADD SWAP1 JUMP JUMPDEST PUSH1 0x0 DUP4 MLOAD PUSH2 0x15BF DUP2 DUP5 PUSH1 0x20 DUP9 ADD PUSH2 0x10F1 JUMP JUMPDEST DUP4 MLOAD SWAP1 DUP4 ADD SWAP1 PUSH2 0x15D3 DUP2 DUP4 PUSH1 0x20 DUP9 ADD PUSH2 0x10F1 JUMP JUMPDEST ADD SWAP5 SWAP4 POP POP POP POP JUMP JUMPDEST PUSH1 0x1 PUSH1 0x1 PUSH1 0xA0 SHL SUB DUP6 DUP2 AND DUP3 MSTORE DUP5 AND PUSH1 0x20 DUP3 ADD MSTORE PUSH1 0x40 DUP2 ADD DUP4 SWAP1 MSTORE PUSH1 0x80 PUSH1 0x60 DUP3 ADD DUP2 SWAP1 MSTORE PUSH1 0x0 SWAP1 PUSH2 0x160F SWAP1 DUP4 ADD DUP5 PUSH2 0x1115 JUMP JUMPDEST SWAP7 SWAP6 POP POP POP POP POP POP JUMP JUMPDEST PUSH1 0x0 PUSH1 0x20 DUP3 DUP5 SUB SLT ISZERO PUSH2 0x162B JUMPI PUSH1 0x0 DUP1 REVERT JUMPDEST DUP2 MLOAD PUSH2 0x7A7 DUP2 PUSH2 0x10BB JUMP INVALID DUP1 0xBB 0x2B PUSH4 0x8CC20BC4 0xD0 0xA6 0xD PUSH7 0x940F3AB4A00C1D PUSH28 0x313497CA82FB0B4AB0079300A164736F6C634300081C000A00000000 "},"methodIdentifiers":{"approve(address,uint256)":"095ea7b3","balanceOf(address)":"70a08231","claimContract()":"66345da4","getApproved(uint256)":"081812fc","initialize(string,string,string,address)":"5c6d8da1","isApprovedForAll(address,address)":"e985e9c5","mint(address)":"6a627842","name()":"06fdde03","ownerOf(uint256)":"6352211e","safeTransferFrom(address,address,uint256)":"42842e0e","safeTransferFrom(address,address,uint256,bytes)":"b88d4fde","setApprovalForAll(address,bool)":"a22cb465","setClaimContract(address)":"4a30d3eb","supportsInterface(bytes4)":"01ffc9a7","symbol()":"95d89b41","tokenURI(uint256)":"c87b56dd","transferFrom(address,address,uint256)":"23b872dd"}}}}}