{
  "_format": "hh-sol-artifact-1",
  "contractName": "Claim",
  "sourceName": "contracts/Claim.sol",
  "abi": [
    {
      "inputs": [],
      "name": "InvalidInitialization",
      "type": "error"
    },
    {
      "inputs": [],
      "name": "NotInitializing",
      "type": "error"
    },
    {
      "inputs": [
        {
          "internalType": "address",
          "name": "owner",
          "type": "address"
        }
      ],
      "name": "OwnableInvalidOwner",
      "type": "error"
    },
    {
      "inputs": [
        {
          "internalType": "address",
          "name": "account",
          "type": "address"
        }
      ],
      "name": "OwnableUnauthorizedAccount",
      "type": "error"
    },
    {
      "anonymous": false,
      "inputs": [
        {
          "indexed": true,
          "internalType": "address",
          "name": "account",
          "type": "address"
        },
        {
          "indexed": false,
          "internalType": "uint256",
          "name": "tokenAmount",
          "type": "uint256"
        },
        {
          "indexed": false,
          "internalType": "uint256",
          "name": "tokenId",
          "type": "uint256"
        }
      ],
      "name": "Claimed",
      "type": "event"
    },
    {
      "anonymous": false,
      "inputs": [
        {
          "indexed": true,
          "internalType": "address",
          "name": "from",
          "type": "address"
        },
        {
          "indexed": false,
          "internalType": "uint256",
          "name": "amount",
          "type": "uint256"
        }
      ],
      "name": "Deposited",
      "type": "event"
    },
    {
      "anonymous": false,
      "inputs": [
        {
          "indexed": false,
          "internalType": "uint64",
          "name": "version",
          "type": "uint64"
        }
      ],
      "name": "Initialized",
      "type": "event"
    },
    {
      "anonymous": false,
      "inputs": [
        {
          "indexed": true,
          "internalType": "address",
          "name": "previousOwner",
          "type": "address"
        },
        {
          "indexed": true,
          "internalType": "address",
          "name": "newOwner",
          "type": "address"
        }
      ],
      "name": "OwnershipTransferred",
      "type": "event"
    },
    {
      "anonymous": false,
      "inputs": [
        {
          "indexed": false,
          "internalType": "uint256",
          "name": "oldQuota",
          "type": "uint256"
        },
        {
          "indexed": false,
          "internalType": "uint256",
          "name": "newQuota",
          "type": "uint256"
        }
      ],
      "name": "QuotaUpdated",
      "type": "event"
    },
    {
      "inputs": [],
      "name": "claim",
      "outputs": [],
      "stateMutability": "nonpayable",
      "type": "function"
    },
    {
      "inputs": [
        {
          "internalType": "address",
          "name": "",
          "type": "address"
        }
      ],
      "name": "claimed",
      "outputs": [
        {
          "internalType": "bool",
          "name": "",
          "type": "bool"
        }
      ],
      "stateMutability": "view",
      "type": "function"
    },
    {
      "inputs": [
        {
          "internalType": "uint256",
          "name": "amount",
          "type": "uint256"
        }
      ],
      "name": "deposit",
      "outputs": [],
      "stateMutability": "nonpayable",
      "type": "function"
    },
    {
      "inputs": [
        {
          "internalType": "uint256",
          "name": "amount",
          "type": "uint256"
        }
      ],
      "name": "emergencyWithdraw",
      "outputs": [],
      "stateMutability": "nonpayable",
      "type": "function"
    },
    {
      "inputs": [
        {
          "internalType": "address",
          "name": "initialOwner",
          "type": "address"
        },
        {
          "internalType": "address",
          "name": "tokenAddress",
          "type": "address"
        },
        {
          "internalType": "address",
          "name": "nftAddress",
          "type": "address"
        },
        {
          "internalType": "address",
          "name": "whitelistAddr",
          "type": "address"
        },
        {
          "internalType": "uint256",
          "name": "quota_",
          "type": "uint256"
        }
      ],
      "name": "initialize",
      "outputs": [],
      "stateMutability": "nonpayable",
      "type": "function"
    },
    {
      "inputs": [],
      "name": "nft",
      "outputs": [
        {
          "internalType": "contract ICustomNFT",
          "name": "",
          "type": "address"
        }
      ],
      "stateMutability": "view",
      "type": "function"
    },
    {
      "inputs": [],
      "name": "owner",
      "outputs": [
        {
          "internalType": "address",
          "name": "",
          "type": "address"
        }
      ],
      "stateMutability": "view",
      "type": "function"
    },
    {
      "inputs": [],
      "name": "quota",
      "outputs": [
        {
          "internalType": "uint256",
          "name": "",
          "type": "uint256"
        }
      ],
      "stateMutability": "view",
      "type": "function"
    },
    {
      "inputs": [],
      "name": "renounceOwnership",
      "outputs": [],
      "stateMutability": "nonpayable",
      "type": "function"
    },
    {
      "inputs": [],
      "name": "token",
      "outputs": [
        {
          "internalType": "contract IERC20",
          "name": "",
          "type": "address"
        }
      ],
      "stateMutability": "view",
      "type": "function"
    },
    {
      "inputs": [
        {
          "internalType": "address",
          "name": "newOwner",
          "type": "address"
        }
      ],
      "name": "transferOwnership",
      "outputs": [],
      "stateMutability": "nonpayable",
      "type": "function"
    },
    {
      "inputs": [
        {
          "internalType": "uint256",
          "name": "newQuota",
          "type": "uint256"
        }
      ],
      "name": "updateQuota",
      "outputs": [],
      "stateMutability": "nonpayable",
      "type": "function"
    },
    {
      "inputs": [],
      "name": "whitelist",
      "outputs": [
        {
          "internalType": "contract IWhitelist",
          "name": "",
          "type": "address"
        }
      ],
      "stateMutability": "view",
      "type": "function"
    }
  ],
  "bytecode": "0x6080604052348015600f57600080fd5b50610f918061001f6000396000f3fe608060405234801561001057600080fd5b50600436106100cf5760003560e01c806393e59dc11161008c578063cebe09c911610066578063cebe09c9146101c5578063f2fde38b146101dc578063f7013ef6146101ef578063fc0c546a1461020257600080fd5b806393e59dc11461016c578063b6b55f251461017f578063c884ef831461019257600080fd5b806341107b64146100d457806347ccca02146100e95780634e71d92d146101195780635312ea8e14610121578063715018a6146101345780638da5cb5b1461013c575b600080fd5b6100e76100e2366004610ce9565b610215565b005b6001546100fc906001600160a01b031681565b6040516001600160a01b0390911681526020015b60405180910390f35b6100e76102ab565b6100e761012f366004610ce9565b6104f4565b6100e7610612565b7f9016d09d72d40fdae2fd8ceac6b6234c7706214fd39c1cd1e609a0528c199300546001600160a01b03166100fc565b6002546100fc906001600160a01b031681565b6100e761018d366004610ce9565b610626565b6101b56101a0366004610d1e565b60046020526000908152604090205460ff1681565b6040519015158152602001610110565b6101ce60035481565b604051908152602001610110565b6100e76101ea366004610d1e565b610782565b6100e76101fd366004610d40565b6107c0565b6000546100fc906001600160a01b031681565b61021d610916565b600081116102665760405162461bcd60e51b8152602060048201526011602482015270051756f7461206d757374206265203e203607c1b60448201526064015b60405180910390fd5b600380549082905560408051828152602081018490527f19d6318afb32eea58ef4a200d5730cc282d7e0bd791a8ced865532f1ac4b9b0f910160405180910390a15050565b3360009081526004602052604090205460ff16156102fd5760405162461bcd60e51b815260206004820152600f60248201526e105b1c9958591e4818db185a5b5959608a1b604482015260640161025d565b600254604051633af32abf60e01b81523360048201526001600160a01b0390911690633af32abf90602401602060405180830381865afa158015610345573d6000803e3d6000fd5b505050506040513d601f19601f820116820180604052508101906103699190610d9c565b6103a75760405162461bcd60e51b815260206004820152600f60248201526e139bdd081dda1a5d195b1a5cdd1959608a1b604482015260640161025d565b6001546040516335313c2160e11b81523360048201526000916001600160a01b031690636a627842906024016020604051808303816000875af192505050801561040e575060408051601f3d908101601f1916820190925261040b91810190610dbe565b60015b61047c5761041a610dd7565b806308c379a003610470575061042e610e2e565b806104395750610472565b8060405160200161044a9190610ed7565b60408051601f198184030181529082905262461bcd60e51b825261025d91600401610f10565b505b3d6000803e3d6000fd5b9050336000818152600460205260408120805460ff19166001179055546003546104b3926001600160a01b03929092169190610971565b600354604080519182526020820183905233917f987d620f307ff6b94d58743cb7a7509f24071586a77759b77c2d4e29f75a2f9a910160405180910390a250565b6104fc610916565b600081116105415760405162461bcd60e51b81526020600482015260126024820152710416d6f756e74206d757374206265203e20360741b604482015260640161025d565b600080546040516370a0823160e01b81523060048201526001600160a01b03909116906370a0823190602401602060405180830381865afa15801561058a573d6000803e3d6000fd5b505050506040513d601f19601f820116820180604052508101906105ae9190610dbe565b9050818110156105f75760405162461bcd60e51b8152602060048201526014602482015273496e73756666696369656e742062616c616e636560601b604482015260640161025d565b60005461060e906001600160a01b03163384610971565b5050565b61061a610916565b6106246000610abc565b565b61062e610916565b600081116106735760405162461bcd60e51b81526020600482015260126024820152710416d6f756e74206d757374206265203e20360741b604482015260640161025d565b60008054604051636eb1769f60e11b81523360048201523060248201526001600160a01b039091169063dd62ed3e90604401602060405180830381865afa1580156106c2573d6000803e3d6000fd5b505050506040513d601f19601f820116820180604052508101906106e69190610dbe565b9050818110156107315760405162461bcd60e51b8152602060048201526016602482015275496e73756666696369656e7420616c6c6f77616e636560501b604482015260640161025d565b600054610749906001600160a01b0316333085610b2d565b60405182815233907f2da466a7b24304f47e87fa2e1e5a81b9831ce54fec19055ce277ca2f39ba42c49060200160405180910390a25050565b61078a610916565b6001600160a01b0381166107b457604051631e4fbdf760e01b81526000600482015260240161025d565b6107bd81610abc565b50565b7ff0c57e16840df040f15088dc2f81fe391c3923bec73e23a9662efc9c229c6a008054600160401b810460ff16159067ffffffffffffffff166000811580156108065750825b905060008267ffffffffffffffff1660011480156108235750303b155b905081158015610831575080155b1561084f5760405163f92ee8a960e01b815260040160405180910390fd5b845467ffffffffffffffff19166001178555831561087957845460ff60401b1916600160401b1785555b6108828a610c87565b600080546001600160a01b03808c166001600160a01b031992831617909255600180548b841690831617905560028054928a16929091169190911790556003869055831561090a57845460ff60401b19168555604051600181527fc7f505b2f371ae2175ee4913f4499e1f2633a7b5936321eed1cdaeb6115181d29060200160405180910390a15b50505050505050505050565b336109487f9016d09d72d40fdae2fd8ceac6b6234c7706214fd39c1cd1e609a0528c199300546001600160a01b031690565b6001600160a01b0316146106245760405163118cdaa760e01b815233600482015260240161025d565b604080518082018252601981527f7472616e7366657228616464726573732c75696e74323536290000000000000060209182015281516001600160a01b0385811660248301526044808301869052845180840390910181526064909201845291810180516001600160e01b031663a9059cbb60e01b179052915160009283928716916109fd9190610f43565b6000604051808303816000865af19150503d8060008114610a3a576040519150601f19603f3d011682016040523d82523d6000602084013e610a3f565b606091505b5091509150818015610a69575080511580610a69575080806020019051810190610a699190610d9c565b610ab55760405162461bcd60e51b815260206004820152601d60248201527f536166655472616e736665723a205452414e534645525f4641494c4544000000604482015260640161025d565b5050505050565b7f9016d09d72d40fdae2fd8ceac6b6234c7706214fd39c1cd1e609a0528c19930080546001600160a01b031981166001600160a01b03848116918217845560405192169182907f8be0079c531659141344cd1fd0a4f28419497f9722a3daafe3b4186f6b6457e090600090a3505050565b600080856001600160a01b0316604051806060016040528060258152602001610f606025913980516020909101206040516001600160a01b038089166024830152871660448201526064810186905260840160408051601f198184030181529181526020820180516001600160e01b03166001600160e01b0319909416939093179092529051610bbd9190610f43565b6000604051808303816000865af19150503d8060008114610bfa576040519150601f19603f3d011682016040523d82523d6000602084013e610bff565b606091505b5091509150818015610c29575080511580610c29575080806020019051810190610c299190610d9c565b610c7f5760405162461bcd60e51b815260206004820152602160248201527f536166655472616e7366657246726f6d3a205452414e534645525f4641494c456044820152601160fa1b606482015260840161025d565b505050505050565b610c8f610c98565b6107bd81610ce1565b7ff0c57e16840df040f15088dc2f81fe391c3923bec73e23a9662efc9c229c6a0054600160401b900460ff1661062457604051631afcd79f60e31b815260040160405180910390fd5b61078a610c98565b600060208284031215610cfb57600080fd5b5035919050565b80356001600160a01b0381168114610d1957600080fd5b919050565b600060208284031215610d3057600080fd5b610d3982610d02565b9392505050565b600080600080600060a08688031215610d5857600080fd5b610d6186610d02565b9450610d6f60208701610d02565b9350610d7d60408701610d02565b9250610d8b60608701610d02565b949793965091946080013592915050565b600060208284031215610dae57600080fd5b81518015158114610d3957600080fd5b600060208284031215610dd057600080fd5b5051919050565b600060033d1115610df05760046000803e5060005160e01c5b90565b601f8201601f1916810167ffffffffffffffff81118282101715610e2757634e487b7160e01b600052604160045260246000fd5b6040525050565b600060443d1015610e3c5790565b6040513d600319016004823e80513d602482011167ffffffffffffffff82111715610e6657505090565b808201805167ffffffffffffffff811115610e82575050505090565b3d8401600319018282016020011115610e9c575050505090565b610eab60208285010185610df3565b509392505050565b60005b83811015610ece578181015183820152602001610eb6565b50506000910152565b70027232a1036b4b73a103330b4b632b21d1607d1b815260008251610f03816011850160208701610eb3565b9190910160110192915050565b6020815260008251806020840152610f2f816040850160208701610eb3565b601f01601f19169190910160400192915050565b60008251610f55818460208701610eb3565b919091019291505056fe7472616e7366657246726f6d28616464726573732c616464726573732c75696e7432353629a164736f6c634300081c000a",
  "linkReferences": {},
  "deployedLinkReferences": {}
}